{
  "_format": "hh-sol-artifact-1",
  "contractName": "RaffleFactory",
  "sourceName": "contracts/RaffleFactory.sol",
  "abi": [
    {
      "inputs": [
        {
          "internalType": "address",
          "name": "target",
          "type": "address"
        }
      ],
      "name": "AddressEmptyCode",
      "type": "error"
    },
    {
      "inputs": [
        {
          "internalType": "address",
          "name": "implementation",
          "type": "address"
        }
      ],
      "name": "ERC1967InvalidImplementation",
      "type": "error"
    },
    {
      "inputs": [],
      "name": "ERC1967NonPayable",
      "type": "error"
    },
    {
      "inputs": [],
      "name": "FailedCall",
      "type": "error"
    },
    {
      "inputs": [],
      "name": "InvalidInitialization",
      "type": "error"
    },
    {
      "inputs": [],
      "name": "NotInitializing",
      "type": "error"
    },
    {
      "inputs": [
        {
          "internalType": "address",
          "name": "owner",
          "type": "address"
        }
      ],
      "name": "OwnableInvalidOwner",
      "type": "error"
    },
    {
      "inputs": [
        {
          "internalType": "address",
          "name": "account",
          "type": "address"
        }
      ],
      "name": "OwnableUnauthorizedAccount",
      "type": "error"
    },
    {
      "inputs": [],
      "name": "ReentrancyGuardReentrantCall",
      "type": "error"
    },
    {
      "inputs": [
        {
          "internalType": "address",
          "name": "token",
          "type": "address"
        }
      ],
      "name": "SafeERC20FailedOperation",
      "type": "error"
    },
    {
      "inputs": [],
      "name": "UUPSUnauthorizedCallContext",
      "type": "error"
    },
    {
      "inputs": [
        {
          "internalType": "bytes32",
          "name": "slot",
          "type": "bytes32"
        }
      ],
      "name": "UUPSUnsupportedProxiableUUID",
      "type": "error"
    },
    {
      "anonymous": false,
      "inputs": [
        {
          "indexed": true,
          "internalType": "uint256",
          "name": "drawId",
          "type": "uint256"
        },
        {
          "indexed": false,
          "internalType": "address",
          "name": "drawAddress",
          "type": "address"
        },
        {
          "indexed": false,
          "internalType": "address[]",
          "name": "winners",
          "type": "address[]"
        },
        {
          "indexed": false,
          "internalType": "uint256[]",
          "name": "prizes",
          "type": "uint256[]"
        }
      ],
      "name": "DrawCompleted",
      "type": "event"
    },
    {
      "anonymous": false,
      "inputs": [
        {
          "indexed": true,
          "internalType": "uint256",
          "name": "drawId",
          "type": "uint256"
        },
        {
          "indexed": false,
          "internalType": "address",
          "name": "drawAddress",
          "type": "address"
        },
        {
          "indexed": false,
          "internalType": "address[]",
          "name": "almostWinners",
          "type": "address[]"
        }
      ],
      "name": "DrawCompletedAlmostWinners",
      "type": "event"
    },
    {
      "anonymous": false,
      "inputs": [
        {
          "indexed": true,
          "internalType": "uint256",
          "name": "drawId",
          "type": "uint256"
        },
        {
          "indexed": false,
          "internalType": "address",
          "name": "drawAddress",
          "type": "address"
        },
        {
          "components": [
            {
              "internalType": "uint256",
              "name": "guaranteedPrize",
              "type": "uint256"
            },
            {
              "internalType": "uint256",
              "name": "ticketPrice",
              "type": "uint256"
            },
            {
              "internalType": "uint256",
              "name": "startTime",
              "type": "uint256"
            },
            {
              "internalType": "uint256",
              "name": "endTime",
              "type": "uint256"
            },
            {
              "internalType": "address payable",
              "name": "charityWallet",
              "type": "address"
            },
            {
              "internalType": "address payable",
              "name": "managementWallet",
              "type": "address"
            },
            {
              "internalType": "uint256",
              "name": "minTickets",
              "type": "uint256"
            },
            {
              "internalType": "uint256",
              "name": "maxTicketsPerUser",
              "type": "uint256"
            },
            {
              "internalType": "address",
              "name": "tokenAddress",
              "type": "address"
            }
          ],
          "indexed": false,
          "internalType": "struct RaffleLib.DrawConfig",
          "name": "config",
          "type": "tuple"
        }
      ],
      "name": "DrawCreated",
      "type": "event"
    },
    {
      "anonymous": false,
      "inputs": [
        {
          "indexed": true,
          "internalType": "uint256",
          "name": "drawId",
          "type": "uint256"
        },
        {
          "indexed": false,
          "internalType": "address",
          "name": "drawAddress",
          "type": "address"
        }
      ],
      "name": "DrawStarted",
      "type": "event"
    },
    {
      "anonymous": false,
      "inputs": [
        {
          "indexed": true,
          "internalType": "uint256",
          "name": "drawId",
          "type": "uint256"
        },
        {
          "indexed": false,
          "internalType": "address",
          "name": "drawAddress",
          "type": "address"
        },
        {
          "indexed": false,
          "internalType": "uint256",
          "name": "shortfall",
          "type": "uint256"
        }
      ],
      "name": "FundedShortfall",
      "type": "event"
    },
    {
      "anonymous": false,
      "inputs": [
        {
          "indexed": false,
          "internalType": "uint64",
          "name": "version",
          "type": "uint64"
        }
      ],
      "name": "Initialized",
      "type": "event"
    },
    {
      "anonymous": false,
      "inputs": [
        {
          "indexed": false,
          "internalType": "uint256",
          "name": "newBalance",
          "type": "uint256"
        }
      ],
      "name": "InsuranceFundUpdated",
      "type": "event"
    },
    {
      "anonymous": false,
      "inputs": [
        {
          "indexed": true,
          "internalType": "address",
          "name": "previousOwner",
          "type": "address"
        },
        {
          "indexed": true,
          "internalType": "address",
          "name": "newOwner",
          "type": "address"
        }
      ],
      "name": "OwnershipTransferred",
      "type": "event"
    },
    {
      "anonymous": false,
      "inputs": [
        {
          "indexed": false,
          "internalType": "address",
          "name": "drawAddress",
          "type": "address"
        },
        {
          "indexed": false,
          "internalType": "address",
          "name": "buyer",
          "type": "address"
        },
        {
          "indexed": false,
          "internalType": "uint256",
          "name": "numberOfTickets",
          "type": "uint256"
        },
        {
          "indexed": false,
          "internalType": "uint256",
          "name": "amount",
          "type": "uint256"
        }
      ],
      "name": "TicketPurchased",
      "type": "event"
    },
    {
      "anonymous": false,
      "inputs": [
        {
          "indexed": true,
          "internalType": "address",
          "name": "implementation",
          "type": "address"
        }
      ],
      "name": "Upgraded",
      "type": "event"
    },
    {
      "inputs": [],
      "name": "INSURANCE_FEE_PERCENTAGE",
      "outputs": [
        {
          "internalType": "uint256",
          "name": "",
          "type": "uint256"
        }
      ],
      "stateMutability": "view",
      "type": "function"
    },
    {
      "inputs": [],
      "name": "UPGRADE_INTERFACE_VERSION",
      "outputs": [
        {
          "internalType": "string",
          "name": "",
          "type": "string"
        }
      ],
      "stateMutability": "view",
      "type": "function"
    },
    {
      "inputs": [
        {
          "internalType": "uint256",
          "name": "drawId",
          "type": "uint256"
        }
      ],
      "name": "completeDraw",
      "outputs": [],
      "stateMutability": "nonpayable",
      "type": "function"
    },
    {
      "inputs": [
        {
          "components": [
            {
              "internalType": "uint256",
              "name": "guaranteedPrize",
              "type": "uint256"
            },
            {
              "internalType": "uint256",
              "name": "ticketPrice",
              "type": "uint256"
            },
            {
              "internalType": "uint256",
              "name": "startTime",
              "type": "uint256"
            },
            {
              "internalType": "uint256",
              "name": "endTime",
              "type": "uint256"
            },
            {
              "internalType": "address payable",
              "name": "charityWallet",
              "type": "address"
            },
            {
              "internalType": "address payable",
              "name": "managementWallet",
              "type": "address"
            },
            {
              "internalType": "uint256",
              "name": "minTickets",
              "type": "uint256"
            },
            {
              "internalType": "uint256",
              "name": "maxTicketsPerUser",
              "type": "uint256"
            },
            {
              "internalType": "address",
              "name": "tokenAddress",
              "type": "address"
            }
          ],
          "internalType": "struct RaffleLib.DrawConfig",
          "name": "config",
          "type": "tuple"
        }
      ],
      "name": "createDraw",
      "outputs": [
        {
          "internalType": "uint256",
          "name": "drawId",
          "type": "uint256"
        },
        {
          "internalType": "address",
          "name": "drawAddress",
          "type": "address"
        }
      ],
      "stateMutability": "nonpayable",
      "type": "function"
    },
    {
      "inputs": [],
      "name": "drawCount",
      "outputs": [
        {
          "internalType": "uint256",
          "name": "",
          "type": "uint256"
        }
      ],
      "stateMutability": "view",
      "type": "function"
    },
    {
      "inputs": [
        {
          "internalType": "uint256",
          "name": "",
          "type": "uint256"
        }
      ],
      "name": "draws",
      "outputs": [
        {
          "internalType": "address",
          "name": "",
          "type": "address"
        }
      ],
      "stateMutability": "view",
      "type": "function"
    },
    {
      "inputs": [
        {
          "internalType": "uint256",
          "name": "drawId",
          "type": "uint256"
        },
        {
          "internalType": "uint256",
          "name": "shortfallAmount",
          "type": "uint256"
        }
      ],
      "name": "fundDrawShortfall",
      "outputs": [],
      "stateMutability": "nonpayable",
      "type": "function"
    },
    {
      "inputs": [
        {
          "internalType": "uint256",
          "name": "drawId",
          "type": "uint256"
        }
      ],
      "name": "getDrawAddress",
      "outputs": [
        {
          "internalType": "address",
          "name": "",
          "type": "address"
        }
      ],
      "stateMutability": "view",
      "type": "function"
    },
    {
      "inputs": [
        {
          "internalType": "uint256",
          "name": "drawId",
          "type": "uint256"
        }
      ],
      "name": "getDrawStatus",
      "outputs": [
        {
          "components": [
            {
              "internalType": "uint256",
              "name": "currentPrizePool",
              "type": "uint256"
            },
            {
              "internalType": "uint256",
              "name": "totalTickets",
              "type": "uint256"
            },
            {
              "internalType": "bool",
              "name": "isActive",
              "type": "bool"
            },
            {
              "internalType": "bool",
              "name": "isComplete",
              "type": "bool"
            }
          ],
          "internalType": "struct RaffleLib.DrawStatus",
          "name": "",
          "type": "tuple"
        }
      ],
      "stateMutability": "view",
      "type": "function"
    },
    {
      "inputs": [
        {
          "internalType": "uint256",
          "name": "drawId",
          "type": "uint256"
        },
        {
          "components": [
            {
              "internalType": "uint256",
              "name": "guaranteedPrize",
              "type": "uint256"
            },
            {
              "internalType": "uint256",
              "name": "ticketPrice",
              "type": "uint256"
            },
            {
              "internalType": "uint256",
              "name": "startTime",
              "type": "uint256"
            },
            {
              "internalType": "uint256",
              "name": "endTime",
              "type": "uint256"
            },
            {
              "internalType": "address payable",
              "name": "charityWallet",
              "type": "address"
            },
            {
              "internalType": "address payable",
              "name": "managementWallet",
              "type": "address"
            },
            {
              "internalType": "uint256",
              "name": "minTickets",
              "type": "uint256"
            },
            {
              "internalType": "uint256",
              "name": "maxTicketsPerUser",
              "type": "uint256"
            },
            {
              "internalType": "address",
              "name": "tokenAddress",
              "type": "address"
            }
          ],
          "internalType": "struct RaffleLib.DrawConfig",
          "name": "config",
          "type": "tuple"
        }
      ],
      "name": "getPredictedAddress",
      "outputs": [
        {
          "internalType": "address",
          "name": "",
          "type": "address"
        }
      ],
      "stateMutability": "view",
      "type": "function"
    },
    {
      "inputs": [],
      "name": "initialize",
      "outputs": [],
      "stateMutability": "nonpayable",
      "type": "function"
    },
    {
      "inputs": [],
      "name": "insuranceFund",
      "outputs": [
        {
          "internalType": "uint256",
          "name": "",
          "type": "uint256"
        }
      ],
      "stateMutability": "view",
      "type": "function"
    },
    {
      "inputs": [
        {
          "internalType": "address",
          "name": "",
          "type": "address"
        }
      ],
      "name": "isValidDraw",
      "outputs": [
        {
          "internalType": "bool",
          "name": "",
          "type": "bool"
        }
      ],
      "stateMutability": "view",
      "type": "function"
    },
    {
      "inputs": [
        {
          "internalType": "address",
          "name": "buyer",
          "type": "address"
        },
        {
          "internalType": "uint256",
          "name": "numberOfTickets",
          "type": "uint256"
        },
        {
          "internalType": "uint256",
          "name": "amount",
          "type": "uint256"
        }
      ],
      "name": "notifyTicketPurchase",
      "outputs": [],
      "stateMutability": "nonpayable",
      "type": "function"
    },
    {
      "inputs": [],
      "name": "owner",
      "outputs": [
        {
          "internalType": "address",
          "name": "",
          "type": "address"
        }
      ],
      "stateMutability": "view",
      "type": "function"
    },
    {
      "inputs": [],
      "name": "proxiableUUID",
      "outputs": [
        {
          "internalType": "bytes32",
          "name": "",
          "type": "bytes32"
        }
      ],
      "stateMutability": "view",
      "type": "function"
    },
    {
      "inputs": [],
      "name": "renounceOwnership",
      "outputs": [],
      "stateMutability": "nonpayable",
      "type": "function"
    },
    {
      "inputs": [
        {
          "internalType": "uint256",
          "name": "drawId",
          "type": "uint256"
        }
      ],
      "name": "startDraw",
      "outputs": [],
      "stateMutability": "nonpayable",
      "type": "function"
    },
    {
      "inputs": [
        {
          "internalType": "address",
          "name": "newOwner",
          "type": "address"
        }
      ],
      "name": "transferOwnership",
      "outputs": [],
      "stateMutability": "nonpayable",
      "type": "function"
    },
    {
      "inputs": [
        {
          "internalType": "address",
          "name": "newImplementation",
          "type": "address"
        },
        {
          "internalType": "bytes",
          "name": "data",
          "type": "bytes"
        }
      ],
      "name": "upgradeToAndCall",
      "outputs": [],
      "stateMutability": "payable",
      "type": "function"
    }
  ],
  "bytecode": "0x60a060405230608052348015601357600080fd5b50608051613c8961003d6000396000818161113a0152818161116301526112a90152613c896000f3fe60806040526004361061011f5760003560e01c80638129fc1c116100a0578063b790230311610064578063b79023031461038c578063c4b7e3db146103a2578063d60c5b2c146103df578063f2fde38b146103ff578063fa371df31461041f57600080fd5b80638129fc1c146102c75780638da5cb5b146102dc578063904360b21461031957806394622e421461032e578063ad3cb1cc1461034e57600080fd5b806328e0b502116100e757806328e0b50214610213578063399b5f0d1461026a5780634f1ef2861461028a57806352d1902d1461029d578063715018a6146102b257600080fd5b806308222d58146101245780630cc36c361461014d57806311909a871461019b578063133d7f64146101bd5780631d41cc30146101f3575b600080fd5b34801561013057600080fd5b5061013a60025481565b6040519081526020015b60405180910390f35b34801561015957600080fd5b50610183610168366004611713565b6000602081905290815260409020546001600160a01b031681565b6040516001600160a01b039091168152602001610144565b3480156101a757600080fd5b506101bb6101b6366004611713565b61045f565b005b3480156101c957600080fd5b506101836101d8366004611713565b6000908152602081905260409020546001600160a01b031690565b3480156101ff57600080fd5b506101bb61020e366004611713565b6106fc565b34801561021f57600080fd5b5061023361022e366004611713565b6107ce565b6040516101449190815181526020808301519082015260408083015115159082015260609182015115159181019190915260800190565b34801561027657600080fd5b506101bb610285366004611751565b61088c565b6101bb6102983660046117f7565b610954565b3480156102a957600080fd5b5061013a610973565b3480156102be57600080fd5b506101bb610990565b3480156102d357600080fd5b506101bb6109a4565b3480156102e857600080fd5b507f9016d09d72d40fdae2fd8ceac6b6234c7706214fd39c1cd1e609a0528c199300546001600160a01b0316610183565b34801561032557600080fd5b5061013a600181565b34801561033a57600080fd5b506101bb6103493660046118a4565b610ac0565b34801561035a57600080fd5b5061037f604051806040016040528060058152602001640352e302e360dc1b81525081565b60405161014491906118ea565b34801561039857600080fd5b5061013a60035481565b3480156103ae57600080fd5b506103c26103bd3660046119ab565b610dcc565b604080519283526001600160a01b03909116602083015201610144565b3480156103eb57600080fd5b506101836103fa3660046119c8565b610fa2565b34801561040b57600080fd5b506101bb61041a3660046119f6565b611096565b34801561042b57600080fd5b5061044f61043a3660046119f6565b60016020526000908152604090205460ff1681565b6040519015158152602001610144565b6000818152602081905260409020546001600160a01b03168061049d5760405162461bcd60e51b815260040161049490611a13565b60405180910390fd5b6000819050806001600160a01b031663439f5ac26040518163ffffffff1660e01b8152600401602060405180830381865afa1580156104e0573d6000803e3d6000fd5b505050506040513d601f19601f820116820180604052508101906105049190611a3f565b4210156105485760405162461bcd60e51b815260206004820152601260248201527144726177207374696c6c206f6e676f696e6760701b6044820152606401610494565b806001600160a01b0316630bdeecbd6040518163ffffffff1660e01b81526004016080604051808303816000875af1158015610588573d6000803e3d6000fd5b505050506040513d601f19601f820116820180604052508101906105ac9190611a68565b50600080826001600160a01b03166398d67f736040518163ffffffff1660e01b8152600401600060405180830381865afa1580156105ee573d6000803e3d6000fd5b505050506040513d6000823e601f3d908101601f191682016040526106169190810190611b7f565b91509150847f80a7f56f7ac5cb4ac90c7615d314363111f56618dcd120bcad899e980c0068c385848460405161064e93929190611c88565b60405180910390a2847f3e1ef7befa228f615bb70d9b811ac95201d35b6520af33898e2b3fbd1727bc3d85856001600160a01b031663f27911596040518163ffffffff1660e01b8152600401600060405180830381865afa1580156106b7573d6000803e3d6000fd5b505050506040513d6000823e601f3d908101601f191682016040526106df9190810190611cef565b6040516106ed929190611d2c565b60405180910390a25050505050565b6107046110d4565b6000818152602081905260409020546001600160a01b0316806107395760405162461bcd60e51b815260040161049490611a13565b806001600160a01b0316632ae168a66040518163ffffffff1660e01b8152600401600060405180830381600087803b15801561077457600080fd5b505af1158015610788573d6000803e3d6000fd5b50506040516001600160a01b03841681528492507f73289d146c1f7118bf56943ede5f592674e99f351aa74e026a02023e50f1ca67915060200160405180910390a25050565b60408051608081018252600080825260208083018290528284018290526060830182905284825281905291909120546001600160a01b0316806108235760405162461bcd60e51b815260040161049490611a13565b806001600160a01b0316634e69d5606040518163ffffffff1660e01b8152600401608060405180830381865afa158015610861573d6000803e3d6000fd5b505050506040513d601f19601f820116820180604052508101906108859190611a68565b9392505050565b3360009081526001602052604090205460ff166108e25760405162461bcd60e51b8152602060048201526014602482015273496e76616c69642064726177206164647265737360601b6044820152606401610494565b336108ff5760405162461bcd60e51b815260040161049490611a13565b604080513381526001600160a01b0385166020820152908101839052606081018290527f5fb16deccda880d198f858bd827f3928bd88eeed2d14f7d1f28c35d67ebc119e9060800160405180910390a1505050565b61095c61112f565b610965826111d4565b61096f82826111dc565b5050565b600061097d61129e565b50600080516020613c3483398151915290565b6109986110d4565b6109a260006112e7565b565b7ff0c57e16840df040f15088dc2f81fe391c3923bec73e23a9662efc9c229c6a008054600160401b810460ff16159067ffffffffffffffff166000811580156109ea5750825b905060008267ffffffffffffffff166001148015610a075750303b155b905081158015610a15575080155b15610a335760405163f92ee8a960e01b815260040160405180910390fd5b845467ffffffffffffffff191660011785558315610a5d57845460ff60401b1916600160401b1785555b610a6633611358565b610a6e611369565b60006002558315610ab957845460ff60401b19168555604051600181527fc7f505b2f371ae2175ee4913f4499e1f2633a7b5936321eed1cdaeb6115181d29060200160405180910390a15b5050505050565b610ac86110d4565b6000828152602081905260409020546001600160a01b031680610afd5760405162461bcd60e51b815260040161049490611a13565b60008190506000816001600160a01b031663c3f909d46040518163ffffffff1660e01b815260040161012060405180830381865afa158015610b43573d6000803e3d6000fd5b505050506040513d601f19601f82011682018060405250810190610b679190611d50565b90506000826001600160a01b0316634e69d5606040518163ffffffff1660e01b8152600401608060405180830381865afa158015610ba9573d6000803e3d6000fd5b505050506040513d601f19601f82011682018060405250810190610bcd9190611a68565b905060008261010001519050836001600160a01b031663439f5ac26040518163ffffffff1660e01b8152600401602060405180830381865afa158015610c17573d6000803e3d6000fd5b505050506040513d601f19601f82011682018060405250810190610c3b9190611a3f565b421015610c7f5760405162461bcd60e51b815260206004820152601260248201527144726177207374696c6c206f6e676f696e6760701b6044820152606401610494565b816060015115610cc95760405162461bcd60e51b81526020600482015260156024820152744472617720616c726561647920636f6d706c65746560581b6044820152606401610494565b8151835111610d095760405162461bcd60e51b815260206004820152600c60248201526b139bc81cda1bdc9d19985b1b60a21b6044820152606401610494565b81518351600091610d1991611dfc565b9050808714610d6a5760405162461bcd60e51b815260206004820152601860248201527f496e76616c69642073686f727466616c6c20616d6f756e7400000000000000006044820152606401610494565b610d7e6001600160a01b0383168783611379565b604080516001600160a01b03881681526020810183905289917f53d09ce941b196e12a1fa32a3042b390d88e65bf5250a77204b22f7c276bd029910160405180910390a25050505050505050565b600080610dd76110d4565b42836040015111610e1f5760405162461bcd60e51b8152602060048201526012602482015271496e76616c69642073746172742074696d6560701b6044820152606401610494565b8260400151836060015111610e695760405162461bcd60e51b815260206004820152601060248201526f496e76616c696420656e642074696d6560801b6044820152606401610494565b60028054906000610e7983611e0f565b919050559150600082604051602001610e9491815260200190565b604051602081830303815290604052805190602001209050600060405180602001610ebe90611706565b601f1982820381018352601f909101166040819052610ee39030908890602001611e28565b60408051601f1981840301815290829052610f019291602001611ebe565b6040516020818303038152906040529050610f1c81836113cb565b60008581526020818152604080832080546001600160a01b0319166001600160a01b038616908117909155835260019182905291829020805460ff191690911790555190935084907f3314442b68e61514233262c9f29a528f6bfae9de8a021b7d85a657cc3c65712f90610f939086908990611e28565b60405180910390a25050915091565b60008083604051602001610fb891815260200190565b604051602081830303815290604052805190602001209050600060405180602001610fe290611706565b601f1982820381018352601f9091011660408190526110079030908790602001611e28565b60408051601f19818403018152908290526110259291602001611ebe565b60408051808303601f1901815282825280516020918201206001600160f81b0319828501523060601b6bffffffffffffffffffffffff191660218501526035840195909552605580840195909552815180840390950185526075909201905282519201919091209150505b92915050565b61109e6110d4565b6001600160a01b0381166110c857604051631e4fbdf760e01b815260006004820152602401610494565b6110d1816112e7565b50565b336111067f9016d09d72d40fdae2fd8ceac6b6234c7706214fd39c1cd1e609a0528c199300546001600160a01b031690565b6001600160a01b0316146109a25760405163118cdaa760e01b8152336004820152602401610494565b306001600160a01b037f00000000000000000000000000000000000000000000000000000000000000001614806111b657507f00000000000000000000000000000000000000000000000000000000000000006001600160a01b03166111aa600080516020613c34833981519152546001600160a01b031690565b6001600160a01b031614155b156109a25760405163703e46dd60e11b815260040160405180910390fd5b6110d16110d4565b816001600160a01b03166352d1902d6040518163ffffffff1660e01b8152600401602060405180830381865afa925050508015611236575060408051601f3d908101601f1916820190925261123391810190611a3f565b60015b61125e57604051634c9c8ce360e01b81526001600160a01b0383166004820152602401610494565b600080516020613c34833981519152811461128f57604051632a87526960e21b815260048101829052602401610494565b611299838361143b565b505050565b306001600160a01b037f000000000000000000000000000000000000000000000000000000000000000016146109a25760405163703e46dd60e11b815260040160405180910390fd5b7f9016d09d72d40fdae2fd8ceac6b6234c7706214fd39c1cd1e609a0528c19930080546001600160a01b031981166001600160a01b03848116918217845560405192169182907f8be0079c531659141344cd1fd0a4f28419497f9722a3daafe3b4186f6b6457e090600090a3505050565b611360611491565b6110d1816114da565b611371611491565b6109a26114e2565b604080516001600160a01b038416602482015260448082018490528251808303909101815260649091019091526020810180516001600160e01b031663a9059cbb60e01b179052611299908490611510565b600080828451602086016000f59050803b6113e557600080fd5b6001600160a01b0381166108855760405162461bcd60e51b815260206004820152601960248201527f43524541544532206465706c6f796d656e74206661696c6564000000000000006044820152606401610494565b61144482611587565b6040516001600160a01b038316907fbc7cd75a20ee27fd9adebab32041f755214dbc6bffa90cc0225b39da2e5c2d3b90600090a28051156114895761129982826115ec565b61096f611662565b7ff0c57e16840df040f15088dc2f81fe391c3923bec73e23a9662efc9c229c6a0054600160401b900460ff166109a257604051631afcd79f60e31b815260040160405180910390fd5b61109e611491565b6114ea611491565b60017f9b779b17422d0df92223018b32b4d1fa46e071723d6817e2486d003becc55f0055565b600080602060008451602086016000885af180611533576040513d6000823e3d81fd5b50506000513d9150811561154b578060011415611558565b6001600160a01b0384163b155b1561158157604051635274afe760e01b81526001600160a01b0385166004820152602401610494565b50505050565b806001600160a01b03163b6000036115bd57604051634c9c8ce360e01b81526001600160a01b0382166004820152602401610494565b600080516020613c3483398151915280546001600160a01b0319166001600160a01b0392909216919091179055565b6060600080846001600160a01b0316846040516116099190611eed565b600060405180830381855af49150503d8060008114611644576040519150601f19603f3d011682016040523d82523d6000602084013e611649565b606091505b5091509150611659858383611681565b95945050505050565b34156109a25760405163b398979f60e01b815260040160405180910390fd5b60608261169657611691826116dd565b610885565b81511580156116ad57506001600160a01b0384163b155b156116d657604051639996b31560e01b81526001600160a01b0385166004820152602401610494565b5092915050565b8051156116ed5780518082602001fd5b60405163d6bda27560e01b815260040160405180910390fd5b611d2a80611f0a83390190565b60006020828403121561172557600080fd5b5035919050565b6001600160a01b03811681146110d157600080fd5b803561174c8161172c565b919050565b60008060006060848603121561176657600080fd5b83356117718161172c565b95602085013595506040909401359392505050565b634e487b7160e01b600052604160045260246000fd5b604051610120810167ffffffffffffffff811182821017156117c0576117c0611786565b60405290565b604051601f8201601f1916810167ffffffffffffffff811182821017156117ef576117ef611786565b604052919050565b6000806040838503121561180a57600080fd5b82356118158161172c565b9150602083013567ffffffffffffffff81111561183157600080fd5b8301601f8101851361184257600080fd5b803567ffffffffffffffff81111561185c5761185c611786565b61186f601f8201601f19166020016117c6565b81815286602083850101111561188457600080fd5b816020840160208301376000602083830101528093505050509250929050565b600080604083850312156118b757600080fd5b50508035926020909101359150565b60005b838110156118e15781810151838201526020016118c9565b50506000910152565b60208152600082518060208401526119098160408501602087016118c6565b601f01601f19169190910160400192915050565b6000610120828403121561193057600080fd5b61193861179c565b82358152602080840135908201526040808401359082015260608084013590820152905061196860808301611741565b608082015261197960a08301611741565b60a082015260c0828101359082015260e0808301359082015261199f6101008301611741565b61010082015292915050565b600061012082840312156119be57600080fd5b610885838361191d565b60008061014083850312156119dc57600080fd5b823591506119ed846020850161191d565b90509250929050565b600060208284031215611a0857600080fd5b81356108858161172c565b602080825260129082015271111c985dc8191bd95cdb89dd08195e1a5cdd60721b604082015260600190565b600060208284031215611a5157600080fd5b5051919050565b8051801515811461174c57600080fd5b60006080828403128015611a7b57600080fd5b506040516080810167ffffffffffffffff81118282101715611a9f57611a9f611786565b60409081528351825260208085015190830152611abd908401611a58565b6040820152611ace60608401611a58565b60608201529392505050565b600067ffffffffffffffff821115611af457611af4611786565b5060051b60200190565b805161174c8161172c565b600082601f830112611b1a57600080fd5b8151611b2d611b2882611ada565b6117c6565b8082825260208201915060208360051b860101925085831115611b4f57600080fd5b602085015b83811015611b75578051611b678161172c565b835260209283019201611b54565b5095945050505050565b60008060408385031215611b9257600080fd5b825167ffffffffffffffff811115611ba957600080fd5b611bb585828601611b09565b925050602083015167ffffffffffffffff811115611bd257600080fd5b8301601f81018513611be357600080fd5b8051611bf1611b2882611ada565b8082825260208201915060208360051b850101925087831115611c1357600080fd5b6020840193505b82841015611c35578351825260209384019390910190611c1a565b809450505050509250929050565b600081518084526020840193506020830160005b82811015611c7e5781516001600160a01b0316865260209586019590910190600101611c57565b5093949350505050565b6001600160a01b0384168152606060208201819052600090611cac90830185611c43565b82810360408401528351808252602080860192019060005b81811015611ce2578351835260209384019390920191600101611cc4565b5090979650505050505050565b600060208284031215611d0157600080fd5b815167ffffffffffffffff811115611d1857600080fd5b611d2484828501611b09565b949350505050565b6001600160a01b0383168152604060208201819052600090611d2490830184611c43565b6000610120828403128015611d6457600080fd5b506000611d6f61179c565b83518152602080850151908201526040808501519082015260608085015190820152611d9d60808501611afe565b6080820152611dae60a08501611afe565b60a082015260c0848101519082015260e0808501519082018190529150611dd86101008501611afe565b610100820152949350505050565b634e487b7160e01b600052601160045260246000fd5b8181038181111561109057611090611de6565b600060018201611e2157611e21611de6565b5060010190565b60006101408201905060018060a01b03841682528251602083015260208301516040830152604083015160608301526060830151608083015260018060a01b0360808401511660a083015260018060a01b0360a08401511660c083015260c083015160e083015260e0830151610100830152610100830151611eb66101208401826001600160a01b03169052565b509392505050565b60008351611ed08184602088016118c6565b835190830190611ee48183602088016118c6565b01949350505050565b60008251611eff8184602087016118c6565b919091019291505056fe6101c0604052601e6080908152601960a052600f60c052600760e08190526101005260056101208190526101405260026101608190526101808190526101a05261004d90601790600a61019c565b5034801561005a57600080fd5b50604051611d2a380380611d2a83398101604081905261007991610253565b600160005533806100a457604051631e4fbdf760e01b81526000600482015260240160405180910390fd5b6100ad8161014a565b50600280546001600160a01b03199081166001600160a01b03948516179091558151600355602082015160045560408201516005556060820151600655608082015160078054831691851691909117905560a082015160088054831691851691909117905560c082015160095560e0820151600a5561010090910151600b8054831691909316908117909255600f80549091169091179055610311565b600180546001600160a01b038381166001600160a01b0319831681179093556040519116919082907f8be0079c531659141344cd1fd0a4f28419497f9722a3daafe3b4186f6b6457e090600090a35050565b82600a81019282156101cf579160200282015b828111156101cf578251829060ff169055916020019190600101906101af565b506101db9291506101df565b5090565b5b808211156101db57600081556001016101e0565b6001600160a01b038116811461020957600080fd5b50565b8051610217816101f4565b919050565b60405161012081016001600160401b038111828210171561024d57634e487b7160e01b600052604160045260246000fd5b60405290565b60008082840361014081121561026857600080fd5b8351610273816101f4565b9250610120601f198201121561028857600080fd5b5061029161021c565b602084810151825260408086015191830191909152606080860151918301919091526080850151908201526102c860a0850161020c565b60808201526102d960c0850161020c565b60a082015260e08481015160c083015261010085015190820152610300610120850161020c565b610100820152809150509250929050565b611a0a806103206000396000f3fe608060405234801561001057600080fd5b506004361061014d5760003560e01c8063715018a6116100c3578063c3f909d41161007c578063c3f909d4146103ee578063c45a015514610403578063eccb3a4f14610416578063f279115914610429578063f2fde38b14610431578063fc0c546a1461044457600080fd5b8063715018a6146102ec57806373b2e80e146102f457806379502c55146103275780638da5cb5b146103b457806398d67f73146103c5578063a2fb1175146103db57600080fd5b806335c1d3491161011557806335c1d34914610228578063439f5ac21461023b5780634e69d5601461024d5780635aa68ac0146102af5780636dcbf2a3146102c457806370740ac9146102e457600080fd5b80630bdeecbd146101525780630fbdc43e1461019a578063200d2ed2146101c55780632ae168a61461020b5780632f36663714610215575b600080fd5b61015a610457565b6040516101919190815181526020808301519082015260408083015115159082015260609182015115159181019190915260800190565b60405180910390f35b6101ad6101a83660046116d9565b6108a1565b6040516001600160a01b039091168152602001610191565b600c54600d54600e546101e392919060ff8082169161010090041684565b6040805194855260208501939093529015159183019190915215156060820152608001610191565b6102136108cb565b005b6102136102233660046116d9565b6109db565b6101ad6102363660046116d9565b610d35565b6006545b604051908152602001610191565b61015a6040805160808101825260008082526020820181905291810182905260608101919091525060408051608081018252600c548152600d546020820152600e5460ff80821615159383019390935261010090049091161515606082015290565b6102b7610d45565b6040516101919190611737565b61023f6102d2366004611751565b60106020526000908152604090205481565b610213610da7565b610213610f7a565b610317610302366004611751565b60116020526000908152604090205460ff1681565b6040519015158152602001610191565b600354600454600554600654600754600854600954600a54600b5461035f98979695946001600160a01b039081169481169392911689565b60408051998a5260208a01989098529688019590955260608701939093526001600160a01b039182166080870152811660a086015260c085019190915260e08401919091521661010082015261012001610191565b6001546001600160a01b03166101ad565b6103cd610f8c565b60405161019192919061177a565b6101ad6103e93660046116d9565b611049565b6103f6611059565b60405161019191906117d4565b6002546101ad906001600160a01b031681565b61023f6104243660046116d9565b611128565b6102b7611149565b61021361043f366004611751565b6111a9565b600f546101ad906001600160a01b031681565b6040805160808101825260008082526020820181905291810182905260608101919091526104836111e4565b6006544210156104cf5760405162461bcd60e51b815260206004820152601260248201527144726177207374696c6c206f6e676f696e6760701b60448201526064015b60405180910390fd5b600e54610100900460ff161561051f5760405162461bcd60e51b81526020600482015260156024820152744472617720616c726561647920636f6d706c65746560581b60448201526064016104c6565b600c5460035411801561059f5750600f546040516370a0823160e01b81523060048201526001600160a01b03909116906370a0823190602401602060405180830381865afa158015610575573d6000803e3d6000fd5b505050506040513d601f19601f82011682018060405250810190610599919061185a565b60035411155b156105ab57600354600c555b600c5460035411156105ff5760405162461bcd60e51b815260206004820152601a60248201527f53686f727466616c6c2066756e64696e6720726571756972656400000000000060448201526064016104c6565b60408051600a808252610160820190925290602082016101408036833750508151610631926014925060200190611624565b5060408051600a808252610160820190925290602082016101408036833750508151610664926016925060200190611689565b5060408051600580825260c08201909252906020820160a08036833750508151610695926015925060200190611624565b50600060646028600c600001546106ac9190611889565b6106b691906118bc565b9050600060646032600c600001546106ce9190611889565b6106d891906118bc565b905060006064600f600c600001546106f09190611889565b6106fa91906118bc565b905060005b600a81101561075a576064601782600a811061071d5761071d6118d0565b01546107299086611889565b61073391906118bc565b60168281548110610746576107466118d0565b6000918252602090912001556001016106ff565b5060004244604051602001610779929190918252602082015260400190565b6040516020818303038152906040528051906020012060001c90506000806107a08361120e565b815191935091506107b8906014906020850190611624565b5080516107cc906015906020840190611624565b50600754600f546107ea916001600160a01b03918216911687611491565b600854600f54610807916001600160a01b03918216911686611491565b600e805461ff0019166101001790556040517f6dca8a22bcfb660effb4fbb961e1dadb0a7d08464266381af6609d7b69b1a9189061084d90601490601590601690611926565b60405180910390a1505060408051608081018252600c548152600d546020820152600e5460ff80821615159383019390935261010090049091161515606082015294505050505061089e6001600055565b90565b601581815481106108b157600080fd5b6000918252602090912001546001600160a01b0316905081565b6002546001600160a01b031633146109315760405162461bcd60e51b815260206004820152602360248201527f4f6e6c7920666163746f72792063616e2063616c6c20746869732066756e637460448201526234b7b760e91b60648201526084016104c6565b600e5460ff161561097a5760405162461bcd60e51b81526020600482015260136024820152724472617720616c72656164792061637469766560681b60448201526064016104c6565b6005544210156109cc5760405162461bcd60e51b815260206004820152601a60248201527f53746172742074696d65206e6f7420726561636865642079657400000000000060448201526064016104c6565b600e805460ff19166001179055565b6109e36111e4565b60055442108015906109f6575060065442105b610a3b5760405162461bcd60e51b8152602060048201526016602482015275139bdd081dda5d1a1a5b88191c985dc81c195c9a5bd960521b60448201526064016104c6565b600e5460ff168015610a555750600e54610100900460ff16155b610aad5760405162461bcd60e51b815260206004820152602360248201527f44726177206e6f7420616374697665206f7220616c726561647920636f6d706c60448201526265746560e81b60648201526084016104c6565b60008111610af55760405162461bcd60e51b8152602060048201526015602482015274125b9d985b1a59081d1a58dad95d08185b5bdd5b9d605a1b60448201526064016104c6565b600a8110610b455760405162461bcd60e51b815260206004820152601e60248201527f4d6178203130207469636b65747320706572207472616e73616374696f6e000060448201526064016104c6565b600a5433600090815260106020526040902054610b63908390611994565b1115610ba95760405162461bcd60e51b8152602060048201526015602482015274151a58dad95d081b1a5b5a5d08195e18d959591959605a1b60448201526064016104c6565b600454600090610bb99083611889565b600f54909150610bd4906001600160a01b03163330846114f5565b60005b82811015610c285760138054600181810183556000929092527f66de8ffda797e3de9c05e8fc57b3bf0ec28a930d40b0d285d93c06501cf6a0900180546001600160a01b0319163317905501610bd7565b503360009081526010602052604081208054849290610c48908490611994565b9091555050600d8054839190600090610c62908490611994565b9091555050600c8054829190600090610c7c908490611994565b909155505060025460405163399b5f0d60e01b815233600482015260248101849052604481018390526001600160a01b039091169063399b5f0d90606401600060405180830381600087803b158015610cd457600080fd5b505af1158015610ce8573d6000803e3d6000fd5b505060408051858152602081018590523393507f7d58f5ddf17a7f65d89554f5d8144ae1dc788046467927063c090f92ed1145dc92500160405180910390a250610d326001600055565b50565b601381815481106108b157600080fd5b60606013805480602002602001604051908101604052809291908181526020018280548015610d9d57602002820191906000526020600020905b81546001600160a01b03168152600190910190602001808311610d7f575b5050505050905090565b610daf6111e4565b600e54610100900460ff16610dfa5760405162461bcd60e51b815260206004820152601160248201527044726177206e6f7420636f6d706c65746560781b60448201526064016104c6565b3360009081526011602052604090205460ff1615610e4c5760405162461bcd60e51b815260206004820152600f60248201526e105b1c9958591e4818db185a5b5959608a1b60448201526064016104c6565b6000805b601454811015610ebe57336001600160a01b031660148281548110610e7757610e776118d0565b6000918252602090912001546001600160a01b031603610eb65760168181548110610ea457610ea46118d0565b90600052602060002001549150610ebe565b600101610e50565b5060008111610f045760405162461bcd60e51b81526020600482015260126024820152714e6f207072697a6520617661696c61626c6560701b60448201526064016104c6565b336000818152601160205260409020805460ff19166001179055600f54610f38916001600160a01b03919091169083611491565b60405181815233907f95681e512bc0fe659e195e06c283eada494316f3d801213e48e7101af92bf7709060200160405180910390a250610f786001600055565b565b610f82611534565b610f786000611561565b6060806014601681805480602002602001604051908101604052809291908181526020018280548015610fe857602002820191906000526020600020905b81546001600160a01b03168152600190910190602001808311610fca575b505050505091508080548060200260200160405190810160405280929190818152602001828054801561103a57602002820191906000526020600020905b815481526020019060010190808311611026575b50505050509050915091509091565b601481815481106108b157600080fd5b6110c36040518061012001604052806000815260200160008152602001600081526020016000815260200160006001600160a01b0316815260200160006001600160a01b03168152602001600081526020016000815260200160006001600160a01b031681525090565b506040805161012081018252600354815260045460208201526005549181019190915260065460608201526007546001600160a01b039081166080830152600854811660a083015260095460c0830152600a5460e0830152600b541661010082015290565b6016818154811061113857600080fd5b600091825260209091200154905081565b60606015805480602002602001604051908101604052809291908181526020018280548015610d9d576020028201919060005260206000209081546001600160a01b03168152600190910190602001808311610d7f575050505050905090565b6111b1611534565b6001600160a01b0381166111db57604051631e4fbdf760e01b8152600060048201526024016104c6565b610d3281611561565b60026000540361120757604051633ee5aeb560e01b815260040160405180910390fd5b6002600055565b60408051600a808252610160820190925260609182916000916020820161014080368337505060408051600580825260c0820190925292935060009291506020820160a080368337019050509050600080600080601380549050116112a75760405162461bcd60e51b815260206004820152600f60248201526e4e6f207061727469636970616e747360881b60448201526064016104c6565b600a8310806112b65750600582105b80156112c25750603281105b15611403576013546040805160208082018c9052818301859052825180830384018152606090920190925280519101206000916112fe916119a7565b9050600060138281548110611315576113156118d0565b60009182526020808320909101546001600160a01b0316808352601290915260409091205490915060ff166113ef576001600160a01b0381166000908152601260205260409020805460ff19166001179055600a8510156113ad5780878681518110611383576113836118d0565b6001600160a01b0390921660209283029190910190910152846113a5816119bb565b9550506113ef565b60058410156113ef57808685815181106113c9576113c96118d0565b6001600160a01b0390921660209283029190910190910152836113eb816119bb565b9450505b826113f9816119bb565b93505050506112a7565b825b600a811015611442576000868281518110611422576114226118d0565b6001600160a01b0390921660209283029190910190910152600101611405565b50815b6005811015611482576000858281518110611462576114626118d0565b6001600160a01b0390921660209283029190910190910152600101611445565b50939792965091945050505050565b6040516001600160a01b038381166024830152604482018390526114f091859182169063a9059cbb906064015b604051602081830303815290604052915060e01b6020820180516001600160e01b0383818316178352505050506115b3565b505050565b6040516001600160a01b03848116602483015283811660448301526064820183905261152e9186918216906323b872dd906084016114be565b50505050565b6001546001600160a01b03163314610f785760405163118cdaa760e01b81523360048201526024016104c6565b600180546001600160a01b038381166001600160a01b0319831681179093556040519116919082907f8be0079c531659141344cd1fd0a4f28419497f9722a3daafe3b4186f6b6457e090600090a35050565b600080602060008451602086016000885af1806115d6576040513d6000823e3d81fd5b50506000513d915081156115ee5780600114156115fb565b6001600160a01b0384163b155b1561152e57604051635274afe760e01b81526001600160a01b03851660048201526024016104c6565b828054828255906000526020600020908101928215611679579160200282015b8281111561167957825182546001600160a01b0319166001600160a01b03909116178255602090920191600190910190611644565b506116859291506116c4565b5090565b828054828255906000526020600020908101928215611679579160200282015b828111156116795782518255916020019190600101906116a9565b5b8082111561168557600081556001016116c5565b6000602082840312156116eb57600080fd5b5035919050565b600081518084526020840193506020830160005b8281101561172d5781516001600160a01b0316865260209586019590910190600101611706565b5093949350505050565b60208152600061174a60208301846116f2565b9392505050565b60006020828403121561176357600080fd5b81356001600160a01b038116811461174a57600080fd5b60408152600061178d60408301856116f2565b828103602084015280845180835260208301915060208601925060005b818110156117c85783518352602093840193909201916001016117aa565b50909695505050505050565b6000610120820190508251825260208301516020830152604083015160408301526060830151606083015260018060a01b03608084015116608083015260018060a01b0360a08401511660a083015260c083015160c083015260e083015160e08301526101008301516118536101008401826001600160a01b03169052565b5092915050565b60006020828403121561186c57600080fd5b5051919050565b634e487b7160e01b600052601160045260246000fd5b80820281158282048414176118a0576118a0611873565b92915050565b634e487b7160e01b600052601260045260246000fd5b6000826118cb576118cb6118a6565b500490565b634e487b7160e01b600052603260045260246000fd5b6000815480845260208401935082600052602060002060005b8281101561172d5781546001600160a01b03168652602090950194600191820191016118ff565b60608152600061193960608301866118e6565b828103602084015261194b81866118e6565b83810360408501528454808252600086815260208082209450909201915b81811015611987578354835260019384019360209093019201611969565b5090979650505050505050565b808201808211156118a0576118a0611873565b6000826119b6576119b66118a6565b500690565b6000600182016119cd576119cd611873565b506001019056fea2646970667358221220f96c3d187079da0cdf7dc0f1c839176376a0bb897da4fee32a29cc4b03fb43f364736f6c634300081b0033360894a13ba1a3210667c828492db98dca3e2076cc3735a920a3ca505d382bbca264697066735822122077eddf5c34920b73362cf91457ce56b50e78980e2c7161db60d61daf48d16e6764736f6c634300081b0033",
  "linkReferences": {},
  "deployedLinkReferences": {}
}