{
  "_format": "hh-sol-artifact-1",
  "contractName": "RaffleFactory",
  "sourceName": "contracts/RaffleFactory.sol",
  "abi": [
    {
      "inputs": [
        {
          "internalType": "address",
          "name": "target",
          "type": "address"
        }
      ],
      "name": "AddressEmptyCode",
      "type": "error"
    },
    {
      "inputs": [
        {
          "internalType": "address",
          "name": "implementation",
          "type": "address"
        }
      ],
      "name": "ERC1967InvalidImplementation",
      "type": "error"
    },
    {
      "inputs": [],
      "name": "ERC1967NonPayable",
      "type": "error"
    },
    {
      "inputs": [],
      "name": "FailedCall",
      "type": "error"
    },
    {
      "inputs": [],
      "name": "InvalidInitialization",
      "type": "error"
    },
    {
      "inputs": [],
      "name": "NotInitializing",
      "type": "error"
    },
    {
      "inputs": [
        {
          "internalType": "address",
          "name": "owner",
          "type": "address"
        }
      ],
      "name": "OwnableInvalidOwner",
      "type": "error"
    },
    {
      "inputs": [
        {
          "internalType": "address",
          "name": "account",
          "type": "address"
        }
      ],
      "name": "OwnableUnauthorizedAccount",
      "type": "error"
    },
    {
      "inputs": [],
      "name": "ReentrancyGuardReentrantCall",
      "type": "error"
    },
    {
      "inputs": [],
      "name": "UUPSUnauthorizedCallContext",
      "type": "error"
    },
    {
      "inputs": [
        {
          "internalType": "bytes32",
          "name": "slot",
          "type": "bytes32"
        }
      ],
      "name": "UUPSUnsupportedProxiableUUID",
      "type": "error"
    },
    {
      "anonymous": false,
      "inputs": [
        {
          "indexed": true,
          "internalType": "uint256",
          "name": "drawId",
          "type": "uint256"
        },
        {
          "indexed": false,
          "internalType": "address",
          "name": "drawAddress",
          "type": "address"
        },
        {
          "indexed": false,
          "internalType": "address[]",
          "name": "winners",
          "type": "address[]"
        },
        {
          "indexed": false,
          "internalType": "uint256[]",
          "name": "prizes",
          "type": "uint256[]"
        }
      ],
      "name": "DrawCompleted",
      "type": "event"
    },
    {
      "anonymous": false,
      "inputs": [
        {
          "indexed": true,
          "internalType": "uint256",
          "name": "drawId",
          "type": "uint256"
        },
        {
          "indexed": false,
          "internalType": "address",
          "name": "drawAddress",
          "type": "address"
        },
        {
          "indexed": false,
          "internalType": "address[]",
          "name": "almostWinners",
          "type": "address[]"
        }
      ],
      "name": "DrawCompletedAlmostWinners",
      "type": "event"
    },
    {
      "anonymous": false,
      "inputs": [
        {
          "indexed": true,
          "internalType": "uint256",
          "name": "drawId",
          "type": "uint256"
        },
        {
          "indexed": false,
          "internalType": "address",
          "name": "drawAddress",
          "type": "address"
        },
        {
          "components": [
            {
              "internalType": "uint256",
              "name": "guaranteedPrize",
              "type": "uint256"
            },
            {
              "internalType": "uint256",
              "name": "ticketPrice",
              "type": "uint256"
            },
            {
              "internalType": "uint256",
              "name": "startTime",
              "type": "uint256"
            },
            {
              "internalType": "uint256",
              "name": "endTime",
              "type": "uint256"
            },
            {
              "internalType": "address payable",
              "name": "charityWallet",
              "type": "address"
            },
            {
              "internalType": "address payable",
              "name": "managementWallet",
              "type": "address"
            },
            {
              "internalType": "uint256",
              "name": "minTickets",
              "type": "uint256"
            },
            {
              "internalType": "uint256",
              "name": "maxTicketsPerUser",
              "type": "uint256"
            }
          ],
          "indexed": false,
          "internalType": "struct RaffleLib.DrawConfig",
          "name": "config",
          "type": "tuple"
        }
      ],
      "name": "DrawCreated",
      "type": "event"
    },
    {
      "anonymous": false,
      "inputs": [
        {
          "indexed": true,
          "internalType": "uint256",
          "name": "drawId",
          "type": "uint256"
        },
        {
          "indexed": false,
          "internalType": "address",
          "name": "drawAddress",
          "type": "address"
        }
      ],
      "name": "DrawStarted",
      "type": "event"
    },
    {
      "anonymous": false,
      "inputs": [
        {
          "indexed": true,
          "internalType": "uint256",
          "name": "drawId",
          "type": "uint256"
        },
        {
          "indexed": false,
          "internalType": "address",
          "name": "drawAddress",
          "type": "address"
        },
        {
          "indexed": false,
          "internalType": "uint256",
          "name": "shortfall",
          "type": "uint256"
        }
      ],
      "name": "FundedShortfall",
      "type": "event"
    },
    {
      "anonymous": false,
      "inputs": [
        {
          "indexed": false,
          "internalType": "uint64",
          "name": "version",
          "type": "uint64"
        }
      ],
      "name": "Initialized",
      "type": "event"
    },
    {
      "anonymous": false,
      "inputs": [
        {
          "indexed": false,
          "internalType": "uint256",
          "name": "newBalance",
          "type": "uint256"
        }
      ],
      "name": "InsuranceFundUpdated",
      "type": "event"
    },
    {
      "anonymous": false,
      "inputs": [
        {
          "indexed": true,
          "internalType": "address",
          "name": "previousOwner",
          "type": "address"
        },
        {
          "indexed": true,
          "internalType": "address",
          "name": "newOwner",
          "type": "address"
        }
      ],
      "name": "OwnershipTransferred",
      "type": "event"
    },
    {
      "anonymous": false,
      "inputs": [
        {
          "indexed": false,
          "internalType": "address",
          "name": "drawAddress",
          "type": "address"
        },
        {
          "indexed": false,
          "internalType": "address",
          "name": "buyer",
          "type": "address"
        },
        {
          "indexed": false,
          "internalType": "uint256",
          "name": "numberOfTickets",
          "type": "uint256"
        },
        {
          "indexed": false,
          "internalType": "uint256",
          "name": "amount",
          "type": "uint256"
        }
      ],
      "name": "TicketPurchased",
      "type": "event"
    },
    {
      "anonymous": false,
      "inputs": [
        {
          "indexed": true,
          "internalType": "address",
          "name": "implementation",
          "type": "address"
        }
      ],
      "name": "Upgraded",
      "type": "event"
    },
    {
      "inputs": [],
      "name": "INSURANCE_FEE_PERCENTAGE",
      "outputs": [
        {
          "internalType": "uint256",
          "name": "",
          "type": "uint256"
        }
      ],
      "stateMutability": "view",
      "type": "function"
    },
    {
      "inputs": [],
      "name": "UPGRADE_INTERFACE_VERSION",
      "outputs": [
        {
          "internalType": "string",
          "name": "",
          "type": "string"
        }
      ],
      "stateMutability": "view",
      "type": "function"
    },
    {
      "inputs": [
        {
          "internalType": "uint256",
          "name": "drawId",
          "type": "uint256"
        }
      ],
      "name": "completeDraw",
      "outputs": [],
      "stateMutability": "nonpayable",
      "type": "function"
    },
    {
      "inputs": [
        {
          "components": [
            {
              "internalType": "uint256",
              "name": "guaranteedPrize",
              "type": "uint256"
            },
            {
              "internalType": "uint256",
              "name": "ticketPrice",
              "type": "uint256"
            },
            {
              "internalType": "uint256",
              "name": "startTime",
              "type": "uint256"
            },
            {
              "internalType": "uint256",
              "name": "endTime",
              "type": "uint256"
            },
            {
              "internalType": "address payable",
              "name": "charityWallet",
              "type": "address"
            },
            {
              "internalType": "address payable",
              "name": "managementWallet",
              "type": "address"
            },
            {
              "internalType": "uint256",
              "name": "minTickets",
              "type": "uint256"
            },
            {
              "internalType": "uint256",
              "name": "maxTicketsPerUser",
              "type": "uint256"
            }
          ],
          "internalType": "struct RaffleLib.DrawConfig",
          "name": "config",
          "type": "tuple"
        }
      ],
      "name": "createDraw",
      "outputs": [
        {
          "internalType": "uint256",
          "name": "drawId",
          "type": "uint256"
        },
        {
          "internalType": "address",
          "name": "drawAddress",
          "type": "address"
        }
      ],
      "stateMutability": "nonpayable",
      "type": "function"
    },
    {
      "inputs": [],
      "name": "drawCount",
      "outputs": [
        {
          "internalType": "uint256",
          "name": "",
          "type": "uint256"
        }
      ],
      "stateMutability": "view",
      "type": "function"
    },
    {
      "inputs": [
        {
          "internalType": "uint256",
          "name": "",
          "type": "uint256"
        }
      ],
      "name": "draws",
      "outputs": [
        {
          "internalType": "address",
          "name": "",
          "type": "address"
        }
      ],
      "stateMutability": "view",
      "type": "function"
    },
    {
      "inputs": [
        {
          "internalType": "uint256",
          "name": "drawId",
          "type": "uint256"
        }
      ],
      "name": "fundDrawShortfall",
      "outputs": [],
      "stateMutability": "payable",
      "type": "function"
    },
    {
      "inputs": [
        {
          "internalType": "uint256",
          "name": "drawId",
          "type": "uint256"
        }
      ],
      "name": "getDrawAddress",
      "outputs": [
        {
          "internalType": "address",
          "name": "",
          "type": "address"
        }
      ],
      "stateMutability": "view",
      "type": "function"
    },
    {
      "inputs": [
        {
          "internalType": "uint256",
          "name": "drawId",
          "type": "uint256"
        }
      ],
      "name": "getDrawStatus",
      "outputs": [
        {
          "components": [
            {
              "internalType": "uint256",
              "name": "currentPrizePool",
              "type": "uint256"
            },
            {
              "internalType": "uint256",
              "name": "totalTickets",
              "type": "uint256"
            },
            {
              "internalType": "bool",
              "name": "isActive",
              "type": "bool"
            },
            {
              "internalType": "bool",
              "name": "isComplete",
              "type": "bool"
            }
          ],
          "internalType": "struct RaffleLib.DrawStatus",
          "name": "",
          "type": "tuple"
        }
      ],
      "stateMutability": "view",
      "type": "function"
    },
    {
      "inputs": [
        {
          "internalType": "uint256",
          "name": "drawId",
          "type": "uint256"
        },
        {
          "components": [
            {
              "internalType": "uint256",
              "name": "guaranteedPrize",
              "type": "uint256"
            },
            {
              "internalType": "uint256",
              "name": "ticketPrice",
              "type": "uint256"
            },
            {
              "internalType": "uint256",
              "name": "startTime",
              "type": "uint256"
            },
            {
              "internalType": "uint256",
              "name": "endTime",
              "type": "uint256"
            },
            {
              "internalType": "address payable",
              "name": "charityWallet",
              "type": "address"
            },
            {
              "internalType": "address payable",
              "name": "managementWallet",
              "type": "address"
            },
            {
              "internalType": "uint256",
              "name": "minTickets",
              "type": "uint256"
            },
            {
              "internalType": "uint256",
              "name": "maxTicketsPerUser",
              "type": "uint256"
            }
          ],
          "internalType": "struct RaffleLib.DrawConfig",
          "name": "config",
          "type": "tuple"
        }
      ],
      "name": "getPredictedAddress",
      "outputs": [
        {
          "internalType": "address",
          "name": "",
          "type": "address"
        }
      ],
      "stateMutability": "view",
      "type": "function"
    },
    {
      "inputs": [],
      "name": "initialize",
      "outputs": [],
      "stateMutability": "nonpayable",
      "type": "function"
    },
    {
      "inputs": [],
      "name": "insuranceFund",
      "outputs": [
        {
          "internalType": "uint256",
          "name": "",
          "type": "uint256"
        }
      ],
      "stateMutability": "view",
      "type": "function"
    },
    {
      "inputs": [
        {
          "internalType": "address",
          "name": "",
          "type": "address"
        }
      ],
      "name": "isValidDraw",
      "outputs": [
        {
          "internalType": "bool",
          "name": "",
          "type": "bool"
        }
      ],
      "stateMutability": "view",
      "type": "function"
    },
    {
      "inputs": [
        {
          "internalType": "address",
          "name": "buyer",
          "type": "address"
        },
        {
          "internalType": "uint256",
          "name": "numberOfTickets",
          "type": "uint256"
        },
        {
          "internalType": "uint256",
          "name": "amount",
          "type": "uint256"
        }
      ],
      "name": "notifyTicketPurchase",
      "outputs": [],
      "stateMutability": "nonpayable",
      "type": "function"
    },
    {
      "inputs": [],
      "name": "owner",
      "outputs": [
        {
          "internalType": "address",
          "name": "",
          "type": "address"
        }
      ],
      "stateMutability": "view",
      "type": "function"
    },
    {
      "inputs": [],
      "name": "proxiableUUID",
      "outputs": [
        {
          "internalType": "bytes32",
          "name": "",
          "type": "bytes32"
        }
      ],
      "stateMutability": "view",
      "type": "function"
    },
    {
      "inputs": [],
      "name": "renounceOwnership",
      "outputs": [],
      "stateMutability": "nonpayable",
      "type": "function"
    },
    {
      "inputs": [
        {
          "internalType": "uint256",
          "name": "drawId",
          "type": "uint256"
        }
      ],
      "name": "startDraw",
      "outputs": [],
      "stateMutability": "nonpayable",
      "type": "function"
    },
    {
      "inputs": [
        {
          "internalType": "address",
          "name": "newOwner",
          "type": "address"
        }
      ],
      "name": "transferOwnership",
      "outputs": [],
      "stateMutability": "nonpayable",
      "type": "function"
    },
    {
      "inputs": [
        {
          "internalType": "address",
          "name": "newImplementation",
          "type": "address"
        },
        {
          "internalType": "bytes",
          "name": "data",
          "type": "bytes"
        }
      ],
      "name": "upgradeToAndCall",
      "outputs": [],
      "stateMutability": "payable",
      "type": "function"
    },
    {
      "stateMutability": "payable",
      "type": "receive"
    }
  ],
  "bytecode": "0x60a060405230608052348015601357600080fd5b50608051613af761003d600039600081816111be015281816111e7015261132d0152613af76000f3fe6080604052600436106101235760003560e01c8063715018a6116100a0578063b790230311610064578063b79023031461038a578063bfb19511146103a0578063e2b9921a146103dd578063f2fde38b146103fd578063fa371df31461041d57600080fd5b8063715018a6146102d05780638129fc1c146102e55780638da5cb5b146102fa578063904360b214610337578063ad3cb1cc1461034c57600080fd5b806328e0b502116100e757806328e0b5021461021e5780632c05400714610275578063399b5f0d146102885780634f1ef286146102a857806352d1902d146102bb57600080fd5b806308222d581461012f5780630cc36c361461015857806311909a87146101a6578063133d7f64146101c85780631d41cc30146101fe57600080fd5b3661012a57005b600080fd5b34801561013b57600080fd5b5061014560025481565b6040519081526020015b60405180910390f35b34801561016457600080fd5b5061018e6101733660046116ce565b6000602081905290815260409020546001600160a01b031681565b6040516001600160a01b03909116815260200161014f565b3480156101b257600080fd5b506101c66101c13660046116ce565b61045d565b005b3480156101d457600080fd5b5061018e6101e33660046116ce565b6000908152602081905260409020546001600160a01b031690565b34801561020a57600080fd5b506101c66102193660046116ce565b6106fa565b34801561022a57600080fd5b5061023e6102393660046116ce565b6107cc565b60405161014f9190815181526020808301519082015260408083015115159082015260609182015115159181019190915260800190565b6101c66102833660046116ce565b61088a565b34801561029457600080fd5b506101c66102a33660046116fc565b610c1c565b6101c66102b63660046117a2565b610ce4565b3480156102c757600080fd5b50610145610d03565b3480156102dc57600080fd5b506101c6610d20565b3480156102f157600080fd5b506101c6610d34565b34801561030657600080fd5b507f9016d09d72d40fdae2fd8ceac6b6234c7706214fd39c1cd1e609a0528c199300546001600160a01b031661018e565b34801561034357600080fd5b50610145600181565b34801561035857600080fd5b5061037d604051806040016040528060058152602001640352e302e360dc1b81525081565b60405161014f9190611873565b34801561039657600080fd5b5061014560035481565b3480156103ac57600080fd5b506103c06103bb366004611935565b610e50565b604080519283526001600160a01b0390911660208301520161014f565b3480156103e957600080fd5b5061018e6103f8366004611952565b611026565b34801561040957600080fd5b506101c6610418366004611980565b61111a565b34801561042957600080fd5b5061044d610438366004611980565b60016020526000908152604090205460ff1681565b604051901515815260200161014f565b6000818152602081905260409020546001600160a01b03168061049b5760405162461bcd60e51b81526004016104929061199d565b60405180910390fd5b6000819050806001600160a01b031663439f5ac26040518163ffffffff1660e01b8152600401602060405180830381865afa1580156104de573d6000803e3d6000fd5b505050506040513d601f19601f8201168201806040525081019061050291906119c9565b4210156105465760405162461bcd60e51b815260206004820152601260248201527144726177207374696c6c206f6e676f696e6760701b6044820152606401610492565b806001600160a01b0316630bdeecbd6040518163ffffffff1660e01b81526004016080604051808303816000875af1158015610586573d6000803e3d6000fd5b505050506040513d601f19601f820116820180604052508101906105aa91906119f2565b50600080826001600160a01b03166398d67f736040518163ffffffff1660e01b8152600401600060405180830381865afa1580156105ec573d6000803e3d6000fd5b505050506040513d6000823e601f3d908101601f191682016040526106149190810190611afe565b91509150847f80a7f56f7ac5cb4ac90c7615d314363111f56618dcd120bcad899e980c0068c385848460405161064c93929190611c07565b60405180910390a2847f3e1ef7befa228f615bb70d9b811ac95201d35b6520af33898e2b3fbd1727bc3d85856001600160a01b031663f27911596040518163ffffffff1660e01b8152600401600060405180830381865afa1580156106b5573d6000803e3d6000fd5b505050506040513d6000823e601f3d908101601f191682016040526106dd9190810190611c6e565b6040516106eb929190611cab565b60405180910390a25050505050565b610702611158565b6000818152602081905260409020546001600160a01b0316806107375760405162461bcd60e51b81526004016104929061199d565b806001600160a01b0316632ae168a66040518163ffffffff1660e01b8152600401600060405180830381600087803b15801561077257600080fd5b505af1158015610786573d6000803e3d6000fd5b50506040516001600160a01b03841681528492507f73289d146c1f7118bf56943ede5f592674e99f351aa74e026a02023e50f1ca67915060200160405180910390a25050565b60408051608081018252600080825260208083018290528284018290526060830182905284825281905291909120546001600160a01b0316806108215760405162461bcd60e51b81526004016104929061199d565b806001600160a01b0316634e69d5606040518163ffffffff1660e01b8152600401608060405180830381865afa15801561085f573d6000803e3d6000fd5b505050506040513d601f19601f8201168201806040525081019061088391906119f2565b9392505050565b610892611158565b6000818152602081905260409020546001600160a01b0316806108c75760405162461bcd60e51b81526004016104929061199d565b60008190506000816001600160a01b031663c3f909d46040518163ffffffff1660e01b815260040161010060405180830381865afa15801561090d573d6000803e3d6000fd5b505050506040513d601f19601f820116820180604052508101906109319190611cda565b90506000826001600160a01b0316634e69d5606040518163ffffffff1660e01b8152600401608060405180830381865afa158015610973573d6000803e3d6000fd5b505050506040513d601f19601f8201168201806040525081019061099791906119f2565b9050826001600160a01b031663439f5ac26040518163ffffffff1660e01b8152600401602060405180830381865afa1580156109d7573d6000803e3d6000fd5b505050506040513d601f19601f820116820180604052508101906109fb91906119c9565b421015610a3f5760405162461bcd60e51b815260206004820152601260248201527144726177207374696c6c206f6e676f696e6760701b6044820152606401610492565b806060015115610a895760405162461bcd60e51b81526020600482015260156024820152744472617720616c726561647920636f6d706c65746560581b6044820152606401610492565b8051825111610ac95760405162461bcd60e51b815260206004820152600c60248201526b139bc81cda1bdc9d19985b1b60a21b6044820152606401610492565b81516001600160a01b0384163110610b1a5760405162461bcd60e51b815260206004820152601460248201527314da1bdc9d19985b1b081b9bdd081b995959195960621b6044820152606401610492565b80518251600091610b2a91611d74565b90506000856001600160a01b03168260405160006040518083038185875af1925050503d8060008114610b79576040519150601f19603f3d011682016040523d82523d6000602084013e610b7e565b606091505b5050905080610bcf5760405162461bcd60e51b815260206004820152601c60248201527f4661696c656420746f207472616e736665722073686f727466616c6c000000006044820152606401610492565b604080516001600160a01b03881681526020810184905288917f53d09ce941b196e12a1fa32a3042b390d88e65bf5250a77204b22f7c276bd029910160405180910390a250505050505050565b3360009081526001602052604090205460ff16610c725760405162461bcd60e51b8152602060048201526014602482015273496e76616c69642064726177206164647265737360601b6044820152606401610492565b33610c8f5760405162461bcd60e51b81526004016104929061199d565b604080513381526001600160a01b0385166020820152908101839052606081018290527f5fb16deccda880d198f858bd827f3928bd88eeed2d14f7d1f28c35d67ebc119e9060800160405180910390a1505050565b610cec6111b3565b610cf582611258565b610cff8282611260565b5050565b6000610d0d611322565b50600080516020613aa283398151915290565b610d28611158565b610d32600061136b565b565b7ff0c57e16840df040f15088dc2f81fe391c3923bec73e23a9662efc9c229c6a008054600160401b810460ff16159067ffffffffffffffff16600081158015610d7a5750825b905060008267ffffffffffffffff166001148015610d975750303b155b905081158015610da5575080155b15610dc35760405163f92ee8a960e01b815260040160405180910390fd5b845467ffffffffffffffff191660011785558315610ded57845460ff60401b1916600160401b1785555b610df6336113dc565b610dfe6113ed565b60006002558315610e4957845460ff60401b19168555604051600181527fc7f505b2f371ae2175ee4913f4499e1f2633a7b5936321eed1cdaeb6115181d29060200160405180910390a15b5050505050565b600080610e5b611158565b42836040015111610ea35760405162461bcd60e51b8152602060048201526012602482015271496e76616c69642073746172742074696d6560701b6044820152606401610492565b8260400151836060015111610eed5760405162461bcd60e51b815260206004820152601060248201526f496e76616c696420656e642074696d6560801b6044820152606401610492565b60028054906000610efd83611d87565b919050559150600082604051602001610f1891815260200190565b604051602081830303815290604052805190602001209050600060405180602001610f42906116c1565b601f1982820381018352601f909101166040819052610f679030908890602001611da0565b60408051601f1981840301815290829052610f859291602001611e19565b6040516020818303038152906040529050610fa081836113fd565b60008581526020818152604080832080546001600160a01b0319166001600160a01b038616908117909155835260019182905291829020805460ff191690911790555190935084907f6d3591395e8032807815fbe2820a2459bcc468d7ff874c3a36dd93f7a48c5024906110179086908990611da0565b60405180910390a25050915091565b6000808360405160200161103c91815260200190565b604051602081830303815290604052805190602001209050600060405180602001611066906116c1565b601f1982820381018352601f90910116604081905261108b9030908790602001611da0565b60408051601f19818403018152908290526110a99291602001611e19565b60408051808303601f1901815282825280516020918201206001600160f81b0319828501523060601b6bffffffffffffffffffffffff191660218501526035840195909552605580840195909552815180840390950185526075909201905282519201919091209150505b92915050565b611122611158565b6001600160a01b03811661114c57604051631e4fbdf760e01b815260006004820152602401610492565b6111558161136b565b50565b3361118a7f9016d09d72d40fdae2fd8ceac6b6234c7706214fd39c1cd1e609a0528c199300546001600160a01b031690565b6001600160a01b031614610d325760405163118cdaa760e01b8152336004820152602401610492565b306001600160a01b037f000000000000000000000000000000000000000000000000000000000000000016148061123a57507f00000000000000000000000000000000000000000000000000000000000000006001600160a01b031661122e600080516020613aa2833981519152546001600160a01b031690565b6001600160a01b031614155b15610d325760405163703e46dd60e11b815260040160405180910390fd5b611155611158565b816001600160a01b03166352d1902d6040518163ffffffff1660e01b8152600401602060405180830381865afa9250505080156112ba575060408051601f3d908101601f191682019092526112b7918101906119c9565b60015b6112e257604051634c9c8ce360e01b81526001600160a01b0383166004820152602401610492565b600080516020613aa2833981519152811461131357604051632a87526960e21b815260048101829052602401610492565b61131d838361146d565b505050565b306001600160a01b037f00000000000000000000000000000000000000000000000000000000000000001614610d325760405163703e46dd60e11b815260040160405180910390fd5b7f9016d09d72d40fdae2fd8ceac6b6234c7706214fd39c1cd1e609a0528c19930080546001600160a01b031981166001600160a01b03848116918217845560405192169182907f8be0079c531659141344cd1fd0a4f28419497f9722a3daafe3b4186f6b6457e090600090a3505050565b6113e46114c3565b6111558161150c565b6113f56114c3565b610d32611514565b600080828451602086016000f59050803b61141757600080fd5b6001600160a01b0381166108835760405162461bcd60e51b815260206004820152601960248201527f43524541544532206465706c6f796d656e74206661696c6564000000000000006044820152606401610492565b61147682611542565b6040516001600160a01b038316907fbc7cd75a20ee27fd9adebab32041f755214dbc6bffa90cc0225b39da2e5c2d3b90600090a28051156114bb5761131d82826115a7565b610cff61161d565b7ff0c57e16840df040f15088dc2f81fe391c3923bec73e23a9662efc9c229c6a0054600160401b900460ff16610d3257604051631afcd79f60e31b815260040160405180910390fd5b6111226114c3565b61151c6114c3565b60017f9b779b17422d0df92223018b32b4d1fa46e071723d6817e2486d003becc55f0055565b806001600160a01b03163b60000361157857604051634c9c8ce360e01b81526001600160a01b0382166004820152602401610492565b600080516020613aa283398151915280546001600160a01b0319166001600160a01b0392909216919091179055565b6060600080846001600160a01b0316846040516115c49190611e48565b600060405180830381855af49150503d80600081146115ff576040519150601f19603f3d011682016040523d82523d6000602084013e611604565b606091505b509150915061161485838361163c565b95945050505050565b3415610d325760405163b398979f60e01b815260040160405180910390fd5b6060826116515761164c82611698565b610883565b815115801561166857506001600160a01b0384163b155b1561169157604051639996b31560e01b81526001600160a01b0385166004820152602401610492565b5092915050565b8051156116a85780518082602001fd5b60405163d6bda27560e01b815260040160405180910390fd5b611c3d80611e6583390190565b6000602082840312156116e057600080fd5b5035919050565b6001600160a01b038116811461115557600080fd5b60008060006060848603121561171157600080fd5b833561171c816116e7565b95602085013595506040909401359392505050565b634e487b7160e01b600052604160045260246000fd5b604051610100810167ffffffffffffffff8111828210171561176b5761176b611731565b60405290565b604051601f8201601f1916810167ffffffffffffffff8111828210171561179a5761179a611731565b604052919050565b600080604083850312156117b557600080fd5b82356117c0816116e7565b9150602083013567ffffffffffffffff8111156117dc57600080fd5b8301601f810185136117ed57600080fd5b803567ffffffffffffffff81111561180757611807611731565b61181a601f8201601f1916602001611771565b81815286602083850101111561182f57600080fd5b816020840160208301376000602083830101528093505050509250929050565b60005b8381101561186a578181015183820152602001611852565b50506000910152565b602081526000825180602084015261189281604085016020870161184f565b601f01601f19169190910160400192915050565b80356118b1816116e7565b919050565b600061010082840312156118c957600080fd5b6118d1611747565b8235815260208084013590820152604080840135908201526060808401359082015290506080820135611903816116e7565b608082015261191460a083016118a6565b60a082015260c0828101359082015260e09182013591810191909152919050565b6000610100828403121561194857600080fd5b61088383836118b6565b600080610120838503121561196657600080fd5b8235915061197784602085016118b6565b90509250929050565b60006020828403121561199257600080fd5b8135610883816116e7565b602080825260129082015271111c985dc8191bd95cdb89dd08195e1a5cdd60721b604082015260600190565b6000602082840312156119db57600080fd5b5051919050565b805180151581146118b157600080fd5b60006080828403128015611a0557600080fd5b506040516080810167ffffffffffffffff81118282101715611a2957611a29611731565b60409081528351825260208085015190830152611a479084016119e2565b6040820152611a58606084016119e2565b60608201529392505050565b600067ffffffffffffffff821115611a7e57611a7e611731565b5060051b60200190565b600082601f830112611a9957600080fd5b8151611aac611aa782611a64565b611771565b8082825260208201915060208360051b860101925085831115611ace57600080fd5b602085015b83811015611af4578051611ae6816116e7565b835260209283019201611ad3565b5095945050505050565b60008060408385031215611b1157600080fd5b825167ffffffffffffffff811115611b2857600080fd5b611b3485828601611a88565b925050602083015167ffffffffffffffff811115611b5157600080fd5b8301601f81018513611b6257600080fd5b8051611b70611aa782611a64565b8082825260208201915060208360051b850101925087831115611b9257600080fd5b6020840193505b82841015611bb4578351825260209384019390910190611b99565b809450505050509250929050565b600081518084526020840193506020830160005b82811015611bfd5781516001600160a01b0316865260209586019590910190600101611bd6565b5093949350505050565b6001600160a01b0384168152606060208201819052600090611c2b90830185611bc2565b82810360408401528351808252602080860192019060005b81811015611c61578351835260209384019390920191600101611c43565b5090979650505050505050565b600060208284031215611c8057600080fd5b815167ffffffffffffffff811115611c9757600080fd5b611ca384828501611a88565b949350505050565b6001600160a01b0383168152604060208201819052600090611ca390830184611bc2565b80516118b1816116e7565b6000610100828403128015611cee57600080fd5b506000611cf9611747565b835181526020808501519082015260408085015190820152606080850151908201526080840151611d29816116e7565b6080820152611d3a60a08501611ccf565b60a082015260c0848101519082015260e09384015193810193909352509092915050565b634e487b7160e01b600052601160045260246000fd5b8181038181111561111457611114611d5e565b600060018201611d9957611d99611d5e565b5060010190565b60006101208201905060018060a01b03841682528251602083015260208301516040830152604083015160608301526060830151608083015260018060a01b0360808401511660a083015260018060a01b0360a08401511660c083015260c083015160e083015260e08301516101008301529392505050565b60008351611e2b81846020880161184f565b835190830190611e3f81836020880161184f565b01949350505050565b60008251611e5a81846020870161184f565b919091019291505056fe6101c0604052601e6080908152601960a052600f60c052600760e08190526101005260056101208190526101405260026101608190526101808190526101a05261004d90601590600a610178565b5034801561005a57600080fd5b50604051611c3d380380611c3d833981016040819052610079916101f8565b600160005533806100a457604051631e4fbdf760e01b81526000600482015260240160405180910390fd5b6100ad81610126565b50600280546001600160a01b039384166001600160a01b031991821617909155815160035560208201516004556040820151600555606082015160065560808201516007805491851691831691909117905560a0820151600880549190941691161790915560c081015160095560e00151600a556102cc565b600180546001600160a01b038381166001600160a01b0319831681179093556040519116919082907f8be0079c531659141344cd1fd0a4f28419497f9722a3daafe3b4186f6b6457e090600090a35050565b82600a81019282156101ab579160200282015b828111156101ab578251829060ff1690559160200191906001019061018b565b506101b79291506101bb565b5090565b5b808211156101b757600081556001016101bc565b6001600160a01b03811681146101e557600080fd5b50565b80516101f3816101d0565b919050565b60008082840361012081121561020d57600080fd5b8351610218816101d0565b9250610100601f198201121561022d57600080fd5b5060405161010081016001600160401b038111828210171561025f57634e487b7160e01b600052604160045260246000fd5b6040908152602085810151835285820151908301526060808601519183019190915260808501519082015261029660a085016101e8565b60808201526102a760c085016101e8565b60a082015260e08481015160c083015261010090940151938101939093525092909150565b611962806102db6000396000f3fe60806040526004361061012c5760003560e01c806373b2e80e116100a5578063c3f909d41161006c578063c3f909d414610471578063c45a0155146104f7578063c819982614610517578063eccb3a4f1461051f578063f27911591461053f578063f2fde38b1461055457005b806373b2e80e1461034a57806379502c551461038a5780638da5cb5b1461041057806398d67f731461042e578063a2fb11751461045157005b8063439f5ac2116100f4578063439f5ac2146102435780634e69d560146102625780635aa68ac0146102d15780636dcbf2a3146102f357806370740ac914610320578063715018a61461033557005b80630bdeecbd1461012e5780630fbdc43e14610183578063200d2ed2146101bb5780632ae168a61461020e57806335c1d34914610223575b005b34801561013a57600080fd5b50610143610574565b60405161017a9190815181526020808301519082015260408083015115159082015260609182015115159181019190915260800190565b60405180910390f35b34801561018f57600080fd5b506101a361019e36600461177e565b610a1f565b6040516001600160a01b03909116815260200161017a565b3480156101c757600080fd5b50600b54600c54600d546101e692919060ff8082169161010090041684565b604080519485526020850193909352901515918301919091521515606082015260800161017a565b34801561021a57600080fd5b5061012c610a49565b34801561022f57600080fd5b506101a361023e36600461177e565b610b59565b34801561024f57600080fd5b506006545b60405190815260200161017a565b34801561026e57600080fd5b506101436040805160808101825260008082526020820181905291810182905260608101919091525060408051608081018252600b548152600c546020820152600d5460ff80821615159383019390935261010090049091161515606082015290565b3480156102dd57600080fd5b506102e6610b69565b60405161017a91906117dc565b3480156102ff57600080fd5b5061025461030e3660046117f6565b600e6020526000908152604090205481565b34801561032c57600080fd5b5061012c610bcb565b34801561034157600080fd5b5061012c610e0f565b34801561035657600080fd5b5061037a6103653660046117f6565b600f6020526000908152604090205460ff1681565b604051901515815260200161017a565b34801561039657600080fd5b50600354600454600554600654600754600854600954600a546103c997969594936001600160a01b039081169316919088565b6040805198895260208901979097529587019490945260608601929092526001600160a01b0390811660808601521660a084015260c083015260e08201526101000161017a565b34801561041c57600080fd5b506001546001600160a01b03166101a3565b34801561043a57600080fd5b50610443610e21565b60405161017a92919061181f565b34801561045d57600080fd5b506101a361046c36600461177e565b610ede565b34801561047d57600080fd5b50610486610eee565b60405161017a91906000610100820190508251825260208301516020830152604083015160408301526060830151606083015260018060a01b03608084015116608083015260018060a01b0360a08401511660a083015260c083015160c083015260e083015160e083015292915050565b34801561050357600080fd5b506002546101a3906001600160a01b031681565b61012c610fa2565b34801561052b57600080fd5b5061025461053a36600461177e565b6112de565b34801561054b57600080fd5b506102e66112ff565b34801561056057600080fd5b5061012c61056f3660046117f6565b61135f565b6040805160808101825260008082526020820181905291810182905260608101919091526105a061139d565b6006544210156105ec5760405162461bcd60e51b815260206004820152601260248201527144726177207374696c6c206f6e676f696e6760701b60448201526064015b60405180910390fd5b600d54610100900460ff161561063c5760405162461bcd60e51b81526020600482015260156024820152744472617720616c726561647920636f6d706c65746560581b60448201526064016105e3565b600b5460035411801561065157506003544710155b1561065d57600354600b555b600b5460035411156106b15760405162461bcd60e51b815260206004820152601a60248201527f53686f727466616c6c2066756e64696e6720726571756972656400000000000060448201526064016105e3565b60408051600a8082526101608201909252906020820161014080368337505081516106e39260129250602001906116c9565b5060408051600a80825261016082019092529060208201610140803683375050815161071692601492506020019061172e565b5060408051600580825260c08201909252906020820160a080368337505081516107479260139250602001906116c9565b50600060646028600b6000015461075e919061188f565b61076891906118c2565b9050600060646032600b60000154610780919061188f565b61078a91906118c2565b905060006064600f600b600001546107a2919061188f565b6107ac91906118c2565b905060005b600a81101561080c576064601582600a81106107cf576107cf6118d6565b01546107db908661188f565b6107e591906118c2565b601482815481106107f8576107f86118d6565b6000918252602090912001556001016107b1565b506000424460405160200161082b929190918252602082015260400190565b6040516020818303038152906040528051906020012060001c9050600080610852836113c7565b8151919350915061086a9060129060208501906116c9565b50805161087e9060139060208401906116c9565b506007546040516000916001600160a01b03169087908381818185875af1925050503d80600081146108cc576040519150601f19603f3d011682016040523d82523d6000602084013e6108d1565b606091505b50509050806109225760405162461bcd60e51b815260206004820152601760248201527f43686172697479207472616e73666572206661696c656400000000000000000060448201526064016105e3565b6008546040516000916001600160a01b03169087908381818185875af1925050503d806000811461096f576040519150601f19603f3d011682016040523d82523d6000602084013e610974565b606091505b50509050806109c55760405162461bcd60e51b815260206004820152601a60248201527f4d616e6167656d656e74207472616e73666572206661696c656400000000000060448201526064016105e3565b5050600d805461ff001981166101009081179283905560408051608081018252600b548152600c54602082015260ff938416151591810191909152920416151560608201529650505050505050610a1c6001600055565b90565b60138181548110610a2f57600080fd5b6000918252602090912001546001600160a01b0316905081565b6002546001600160a01b03163314610aaf5760405162461bcd60e51b815260206004820152602360248201527f4f6e6c7920666163746f72792063616e2063616c6c20746869732066756e637460448201526234b7b760e91b60648201526084016105e3565b600d5460ff1615610af85760405162461bcd60e51b81526020600482015260136024820152724472617720616c72656164792061637469766560681b60448201526064016105e3565b600554421015610b4a5760405162461bcd60e51b815260206004820152601a60248201527f53746172742074696d65206e6f7420726561636865642079657400000000000060448201526064016105e3565b600d805460ff19166001179055565b60118181548110610a2f57600080fd5b60606011805480602002602001604051908101604052809291908181526020018280548015610bc157602002820191906000526020600020905b81546001600160a01b03168152600190910190602001808311610ba3575b5050505050905090565b610bd361139d565b600d54610100900460ff16610c1e5760405162461bcd60e51b815260206004820152601160248201527044726177206e6f7420636f6d706c65746560781b60448201526064016105e3565b336000908152600f602052604090205460ff1615610c705760405162461bcd60e51b815260206004820152600f60248201526e105b1c9958591e4818db185a5b5959608a1b60448201526064016105e3565b6000805b601254811015610ce257336001600160a01b031660128281548110610c9b57610c9b6118d6565b6000918252602090912001546001600160a01b031603610cda5760148181548110610cc857610cc86118d6565b90600052602060002001549150610ce2565b600101610c74565b5060008111610d285760405162461bcd60e51b81526020600482015260126024820152714e6f207072697a6520617661696c61626c6560701b60448201526064016105e3565b336000818152600f6020526040808220805460ff191660011790555190919083908381818185875af1925050503d8060008114610d81576040519150601f19603f3d011682016040523d82523d6000602084013e610d86565b606091505b5050905080610dcc5760405162461bcd60e51b8152602060048201526012602482015271141c9a5e994818db185a5b4819985a5b195960721b60448201526064016105e3565b60405182815233907f95681e512bc0fe659e195e06c283eada494316f3d801213e48e7101af92bf7709060200160405180910390a25050610e0d6001600055565b565b610e1761164a565b610e0d6000611677565b6060806012601481805480602002602001604051908101604052809291908181526020018280548015610e7d57602002820191906000526020600020905b81546001600160a01b03168152600190910190602001808311610e5f575b5050505050915080805480602002602001604051908101604052809291908181526020018280548015610ecf57602002820191906000526020600020905b815481526020019060010190808311610ebb575b50505050509050915091509091565b60128181548110610a2f57600080fd5b610f486040518061010001604052806000815260200160008152602001600081526020016000815260200160006001600160a01b0316815260200160006001600160a01b0316815260200160008152602001600081525090565b506040805161010081018252600354815260045460208201526005549181019190915260065460608201526007546001600160a01b0390811660808301526008541660a082015260095460c0820152600a5460e082015290565b610faa61139d565b6005544210801590610fbd575060065442105b6110025760405162461bcd60e51b8152602060048201526016602482015275139bdd081dda5d1a1a5b88191c985dc81c195c9a5bd960521b60448201526064016105e3565b600d5460ff16801561101c5750600d54610100900460ff16155b6110745760405162461bcd60e51b815260206004820152602360248201527f44726177206e6f7420616374697665206f7220616c726561647920636f6d706c60448201526265746560e81b60648201526084016105e3565b60045460009061108490346118c2565b9050600081116110ce5760405162461bcd60e51b8152602060048201526015602482015274125b9d985b1a59081d1a58dad95d08185b5bdd5b9d605a1b60448201526064016105e3565b600a811061111e5760405162461bcd60e51b815260206004820152601e60248201527f4d6178203130207469636b65747320706572207472616e73616374696f6e000060448201526064016105e3565b600a54336000908152600e602052604090205461113c9083906118ec565b11156111825760405162461bcd60e51b8152602060048201526015602482015274151a58dad95d081b1a5b5a5d08195e18d959591959605a1b60448201526064016105e3565b60005b818110156111d65760118054600181810183556000929092527f31ecc21a745e3968a04e9570e4425bc18fa8019c68028196b546d1669c200c680180546001600160a01b0319163317905501611185565b50336000908152600e6020526040812080548392906111f69084906118ec565b9091555050600c80548291906000906112109084906118ec565b9091555050600b805434919060009061122a9084906118ec565b909155505060025460405163399b5f0d60e01b8152336004820152602481018390523460448201526001600160a01b039091169063399b5f0d90606401600060405180830381600087803b15801561128157600080fd5b505af1158015611295573d6000803e3d6000fd5b5050604080518481523460208201523393507f7d58f5ddf17a7f65d89554f5d8144ae1dc788046467927063c090f92ed1145dc92500160405180910390a250610e0d6001600055565b601481815481106112ee57600080fd5b600091825260209091200154905081565b60606013805480602002602001604051908101604052809291908181526020018280548015610bc1576020028201919060005260206000209081546001600160a01b03168152600190910190602001808311610ba3575050505050905090565b61136761164a565b6001600160a01b03811661139157604051631e4fbdf760e01b8152600060048201526024016105e3565b61139a81611677565b50565b6002600054036113c057604051633ee5aeb560e01b815260040160405180910390fd5b6002600055565b60408051600a808252610160820190925260609182916000916020820161014080368337505060408051600580825260c0820190925292935060009291506020820160a080368337019050509050600080600080601180549050116114605760405162461bcd60e51b815260206004820152600f60248201526e4e6f207061727469636970616e747360881b60448201526064016105e3565b600a83108061146f5750600582105b801561147b5750603281105b156115bc576011546040805160208082018c9052818301859052825180830384018152606090920190925280519101206000916114b7916118ff565b90506000601182815481106114ce576114ce6118d6565b60009182526020808320909101546001600160a01b0316808352601090915260409091205490915060ff166115a8576001600160a01b0381166000908152601060205260409020805460ff19166001179055600a851015611566578087868151811061153c5761153c6118d6565b6001600160a01b03909216602092830291909101909101528461155e81611913565b9550506115a8565b60058410156115a85780868581518110611582576115826118d6565b6001600160a01b0390921660209283029190910190910152836115a481611913565b9450505b826115b281611913565b9350505050611460565b825b600a8110156115fb5760008682815181106115db576115db6118d6565b6001600160a01b03909216602092830291909101909101526001016115be565b50815b600581101561163b57600085828151811061161b5761161b6118d6565b6001600160a01b03909216602092830291909101909101526001016115fe565b50939792965091945050505050565b6001546001600160a01b03163314610e0d5760405163118cdaa760e01b81523360048201526024016105e3565b600180546001600160a01b038381166001600160a01b0319831681179093556040519116919082907f8be0079c531659141344cd1fd0a4f28419497f9722a3daafe3b4186f6b6457e090600090a35050565b82805482825590600052602060002090810192821561171e579160200282015b8281111561171e57825182546001600160a01b0319166001600160a01b039091161782556020909201916001909101906116e9565b5061172a929150611769565b5090565b82805482825590600052602060002090810192821561171e579160200282015b8281111561171e57825182559160200191906001019061174e565b5b8082111561172a576000815560010161176a565b60006020828403121561179057600080fd5b5035919050565b600081518084526020840193506020830160005b828110156117d25781516001600160a01b03168652602095860195909101906001016117ab565b5093949350505050565b6020815260006117ef6020830184611797565b9392505050565b60006020828403121561180857600080fd5b81356001600160a01b03811681146117ef57600080fd5b6040815260006118326040830185611797565b828103602084015280845180835260208301915060208601925060005b8181101561186d57835183526020938401939092019160010161184f565b50909695505050505050565b634e487b7160e01b600052601160045260246000fd5b80820281158282048414176118a6576118a6611879565b92915050565b634e487b7160e01b600052601260045260246000fd5b6000826118d1576118d16118ac565b500490565b634e487b7160e01b600052603260045260246000fd5b808201808211156118a6576118a6611879565b60008261190e5761190e6118ac565b500690565b60006001820161192557611925611879565b506001019056fea2646970667358221220ba69835a6148da9b1526b764db14ca90ded5f29b6d980a077e918706974b763864736f6c634300081b0033360894a13ba1a3210667c828492db98dca3e2076cc3735a920a3ca505d382bbca2646970667358221220f7245adc71b2faff831805650b96f97454d695cce05eac15963671ea37b6cd1364736f6c634300081b0033",
  "linkReferences": {},
  "deployedLinkReferences": {}
}