{
	"_format": "hh-sol-artifact-1",
	"contractName": "MockTaikoToken",
	"sourceName": "contracts/MockTaikoToken.sol",
	"abi": [
		{
			"inputs": [],
			"stateMutability": "nonpayable",
			"type": "constructor"
		},
		{
			"inputs": [
				{
					"internalType": "address",
					"name": "spender",
					"type": "address"
				},
				{
					"internalType": "uint256",
					"name": "allowance",
					"type": "uint256"
				},
				{
					"internalType": "uint256",
					"name": "needed",
					"type": "uint256"
				}
			],
			"name": "ERC20InsufficientAllowance",
			"type": "error"
		},
		{
			"inputs": [
				{
					"internalType": "address",
					"name": "sender",
					"type": "address"
				},
				{
					"internalType": "uint256",
					"name": "balance",
					"type": "uint256"
				},
				{
					"internalType": "uint256",
					"name": "needed",
					"type": "uint256"
				}
			],
			"name": "ERC20InsufficientBalance",
			"type": "error"
		},
		{
			"inputs": [
				{
					"internalType": "address",
					"name": "approver",
					"type": "address"
				}
			],
			"name": "ERC20InvalidApprover",
			"type": "error"
		},
		{
			"inputs": [
				{
					"internalType": "address",
					"name": "receiver",
					"type": "address"
				}
			],
			"name": "ERC20InvalidReceiver",
			"type": "error"
		},
		{
			"inputs": [
				{
					"internalType": "address",
					"name": "sender",
					"type": "address"
				}
			],
			"name": "ERC20InvalidSender",
			"type": "error"
		},
		{
			"inputs": [
				{
					"internalType": "address",
					"name": "spender",
					"type": "address"
				}
			],
			"name": "ERC20InvalidSpender",
			"type": "error"
		},
		{
			"inputs": [
				{
					"internalType": "address",
					"name": "owner",
					"type": "address"
				}
			],
			"name": "OwnableInvalidOwner",
			"type": "error"
		},
		{
			"inputs": [
				{
					"internalType": "address",
					"name": "account",
					"type": "address"
				}
			],
			"name": "OwnableUnauthorizedAccount",
			"type": "error"
		},
		{
			"anonymous": false,
			"inputs": [
				{
					"indexed": true,
					"internalType": "address",
					"name": "owner",
					"type": "address"
				},
				{
					"indexed": true,
					"internalType": "address",
					"name": "spender",
					"type": "address"
				},
				{
					"indexed": false,
					"internalType": "uint256",
					"name": "value",
					"type": "uint256"
				}
			],
			"name": "Approval",
			"type": "event"
		},
		{
			"anonymous": false,
			"inputs": [
				{
					"indexed": true,
					"internalType": "address",
					"name": "previousOwner",
					"type": "address"
				},
				{
					"indexed": true,
					"internalType": "address",
					"name": "newOwner",
					"type": "address"
				}
			],
			"name": "OwnershipTransferred",
			"type": "event"
		},
		{
			"anonymous": false,
			"inputs": [
				{
					"indexed": true,
					"internalType": "address",
					"name": "from",
					"type": "address"
				},
				{
					"indexed": true,
					"internalType": "address",
					"name": "to",
					"type": "address"
				},
				{
					"indexed": false,
					"internalType": "uint256",
					"name": "value",
					"type": "uint256"
				}
			],
			"name": "Transfer",
			"type": "event"
		},
		{
			"inputs": [],
			"name": "FAUCET_AMOUNT",
			"outputs": [
				{
					"internalType": "uint256",
					"name": "",
					"type": "uint256"
				}
			],
			"stateMutability": "view",
			"type": "function"
		},
		{
			"inputs": [],
			"name": "FAUCET_COOL_DOWN",
			"outputs": [
				{
					"internalType": "uint256",
					"name": "",
					"type": "uint256"
				}
			],
			"stateMutability": "view",
			"type": "function"
		},
		{
			"inputs": [
				{
					"internalType": "address",
					"name": "owner",
					"type": "address"
				},
				{
					"internalType": "address",
					"name": "spender",
					"type": "address"
				}
			],
			"name": "allowance",
			"outputs": [
				{
					"internalType": "uint256",
					"name": "",
					"type": "uint256"
				}
			],
			"stateMutability": "view",
			"type": "function"
		},
		{
			"inputs": [
				{
					"internalType": "address",
					"name": "spender",
					"type": "address"
				},
				{
					"internalType": "uint256",
					"name": "value",
					"type": "uint256"
				}
			],
			"name": "approve",
			"outputs": [
				{
					"internalType": "bool",
					"name": "",
					"type": "bool"
				}
			],
			"stateMutability": "nonpayable",
			"type": "function"
		},
		{
			"inputs": [
				{
					"internalType": "address",
					"name": "account",
					"type": "address"
				}
			],
			"name": "balanceOf",
			"outputs": [
				{
					"internalType": "uint256",
					"name": "",
					"type": "uint256"
				}
			],
			"stateMutability": "view",
			"type": "function"
		},
		{
			"inputs": [],
			"name": "decimals",
			"outputs": [
				{
					"internalType": "uint8",
					"name": "",
					"type": "uint8"
				}
			],
			"stateMutability": "view",
			"type": "function"
		},
		{
			"inputs": [],
			"name": "faucet",
			"outputs": [],
			"stateMutability": "nonpayable",
			"type": "function"
		},
		{
			"inputs": [
				{
					"internalType": "address",
					"name": "",
					"type": "address"
				}
			],
			"name": "lastFaucetTime",
			"outputs": [
				{
					"internalType": "uint256",
					"name": "",
					"type": "uint256"
				}
			],
			"stateMutability": "view",
			"type": "function"
		},
		{
			"inputs": [
				{
					"internalType": "address",
					"name": "to",
					"type": "address"
				},
				{
					"internalType": "uint256",
					"name": "amount",
					"type": "uint256"
				}
			],
			"name": "mint",
			"outputs": [],
			"stateMutability": "nonpayable",
			"type": "function"
		},
		{
			"inputs": [],
			"name": "name",
			"outputs": [
				{
					"internalType": "string",
					"name": "",
					"type": "string"
				}
			],
			"stateMutability": "view",
			"type": "function"
		},
		{
			"inputs": [],
			"name": "owner",
			"outputs": [
				{
					"internalType": "address",
					"name": "",
					"type": "address"
				}
			],
			"stateMutability": "view",
			"type": "function"
		},
		{
			"inputs": [],
			"name": "renounceOwnership",
			"outputs": [],
			"stateMutability": "nonpayable",
			"type": "function"
		},
		{
			"inputs": [],
			"name": "symbol",
			"outputs": [
				{
					"internalType": "string",
					"name": "",
					"type": "string"
				}
			],
			"stateMutability": "view",
			"type": "function"
		},
		{
			"inputs": [],
			"name": "totalSupply",
			"outputs": [
				{
					"internalType": "uint256",
					"name": "",
					"type": "uint256"
				}
			],
			"stateMutability": "view",
			"type": "function"
		},
		{
			"inputs": [
				{
					"internalType": "address",
					"name": "to",
					"type": "address"
				},
				{
					"internalType": "uint256",
					"name": "value",
					"type": "uint256"
				}
			],
			"name": "transfer",
			"outputs": [
				{
					"internalType": "bool",
					"name": "",
					"type": "bool"
				}
			],
			"stateMutability": "nonpayable",
			"type": "function"
		},
		{
			"inputs": [
				{
					"internalType": "address",
					"name": "from",
					"type": "address"
				},
				{
					"internalType": "address",
					"name": "to",
					"type": "address"
				},
				{
					"internalType": "uint256",
					"name": "value",
					"type": "uint256"
				}
			],
			"name": "transferFrom",
			"outputs": [
				{
					"internalType": "bool",
					"name": "",
					"type": "bool"
				}
			],
			"stateMutability": "nonpayable",
			"type": "function"
		},
		{
			"inputs": [
				{
					"internalType": "address",
					"name": "newOwner",
					"type": "address"
				}
			],
			"name": "transferOwnership",
			"outputs": [],
			"stateMutability": "nonpayable",
			"type": "function"
		}
	],
	"bytecode": "0x608060405234801561001057600080fd5b50336040518060400160405280601081526020016f26b7b1b5902a30b4b5b7902a37b5b2b760811b815250604051806040016040528060038152602001624d544b60e81b8152508160039081610066919061031d565b506004610073828261031d565b5050506001600160a01b0381166100a557604051631e4fbdf760e01b8152600060048201526024015b60405180910390fd5b6100ae816100c8565b506100c33369d3c21bcecceda100000061011a565b610402565b600580546001600160a01b038381166001600160a01b0319831681179093556040519116919082907f8be0079c531659141344cd1fd0a4f28419497f9722a3daafe3b4186f6b6457e090600090a35050565b6001600160a01b0382166101445760405163ec442f0560e01b81526000600482015260240161009c565b61015060008383610154565b5050565b6001600160a01b03831661017f57806002600082825461017491906103db565b909155506101f19050565b6001600160a01b038316600090815260208190526040902054818110156101d25760405163391434e360e21b81526001600160a01b0385166004820152602481018290526044810183905260640161009c565b6001600160a01b03841660009081526020819052604090209082900390555b6001600160a01b03821661020d5760028054829003905561022c565b6001600160a01b03821660009081526020819052604090208054820190555b816001600160a01b0316836001600160a01b03167fddf252ad1be2c89b69c2b068fc378daa952ba7f163c4a11628f55a4df523b3ef8360405161027191815260200190565b60405180910390a3505050565b634e487b7160e01b600052604160045260246000fd5b600181811c908216806102a857607f821691505b6020821081036102c857634e487b7160e01b600052602260045260246000fd5b50919050565b601f82111561031857806000526020600020601f840160051c810160208510156102f55750805b601f840160051c820191505b818110156103155760008155600101610301565b50505b505050565b81516001600160401b038111156103365761033661027e565b61034a816103448454610294565b846102ce565b6020601f82116001811461037e57600083156103665750848201515b600019600385901b1c1916600184901b178455610315565b600084815260208120601f198516915b828110156103ae578785015182556020948501946001909201910161038e565b50848210156103cc5786840151600019600387901b60f8161c191681555b50505050600190811b01905550565b808201808211156103fc57634e487b7160e01b600052601160045260246000fd5b92915050565b6109ea806104116000396000f3fe608060405234801561001057600080fd5b506004361061010b5760003560e01c8063715018a6116100a257806395d89b411161007157806395d89b4114610220578063a9059cbb14610228578063dd62ed3e1461023b578063de5f72fd14610274578063f2fde38b1461027c57600080fd5b8063715018a6146101cd57806376697640146101d55780637bc1f6cc146101e55780638da5cb5b1461020557600080fd5b8063313ce567116100de578063313ce5671461017657806340c10f19146101855780635f1d2d521461019a57806370a08231146101a457600080fd5b806306fdde0314610110578063095ea7b31461012e57806318160ddd1461015157806323b872dd14610163575b600080fd5b61011861028f565b6040516101259190610833565b60405180910390f35b61014161013c36600461089d565b610321565b6040519015158152602001610125565b6002545b604051908152602001610125565b6101416101713660046108c7565b61033b565b60405160128152602001610125565b61019861019336600461089d565b61035f565b005b6101556201518081565b6101556101b2366004610904565b6001600160a01b031660009081526020819052604090205490565b610198610375565b610155681b1ae4d6e2ef50000081565b6101556101f3366004610904565b60066020526000908152604090205481565b6005546040516001600160a01b039091168152602001610125565b610118610389565b61014161023636600461089d565b610398565b610155610249366004610926565b6001600160a01b03918216600090815260016020908152604080832093909416825291909152205490565b6101986103a6565b61019861028a366004610904565b610452565b60606003805461029e90610959565b80601f01602080910402602001604051908101604052809291908181526020018280546102ca90610959565b80156103175780601f106102ec57610100808354040283529160200191610317565b820191906000526020600020905b8154815290600101906020018083116102fa57829003601f168201915b5050505050905090565b60003361032f818585610490565b60019150505b92915050565b6000336103498582856104a2565b610354858585610520565b506001949350505050565b61036761057f565b61037182826105ac565b5050565b61037d61057f565b61038760006105e2565b565b60606004805461029e90610959565b60003361032f818585610520565b336000908152600660205260409020546103c4906201518090610993565b42101561042d5760405162461bcd60e51b815260206004820152602c60248201527f506c65617365207761697420323420686f757273206265747765656e2066617560448201526b63657420726571756573747360a01b60648201526084015b60405180910390fd5b33600081815260066020526040902042905561038790681b1ae4d6e2ef5000006105ac565b61045a61057f565b6001600160a01b03811661048457604051631e4fbdf760e01b815260006004820152602401610424565b61048d816105e2565b50565b61049d8383836001610634565b505050565b6001600160a01b03838116600090815260016020908152604080832093861683529290522054600019811461051a578181101561050b57604051637dc7a0d960e11b81526001600160a01b03841660048201526024810182905260448101839052606401610424565b61051a84848484036000610634565b50505050565b6001600160a01b03831661054a57604051634b637e8f60e11b815260006004820152602401610424565b6001600160a01b0382166105745760405163ec442f0560e01b815260006004820152602401610424565b61049d838383610709565b6005546001600160a01b031633146103875760405163118cdaa760e01b8152336004820152602401610424565b6001600160a01b0382166105d65760405163ec442f0560e01b815260006004820152602401610424565b61037160008383610709565b600580546001600160a01b038381166001600160a01b0319831681179093556040519116919082907f8be0079c531659141344cd1fd0a4f28419497f9722a3daafe3b4186f6b6457e090600090a35050565b6001600160a01b03841661065e5760405163e602df0560e01b815260006004820152602401610424565b6001600160a01b03831661068857604051634a1406b160e11b815260006004820152602401610424565b6001600160a01b038085166000908152600160209081526040808320938716835292905220829055801561051a57826001600160a01b0316846001600160a01b03167f8c5be1e5ebec7d5bd14f71427d1e84f3dd0314c0f7b2291e5b200ac8c7c3b925846040516106fb91815260200190565b60405180910390a350505050565b6001600160a01b0383166107345780600260008282546107299190610993565b909155506107a69050565b6001600160a01b038316600090815260208190526040902054818110156107875760405163391434e360e21b81526001600160a01b03851660048201526024810182905260448101839052606401610424565b6001600160a01b03841660009081526020819052604090209082900390555b6001600160a01b0382166107c2576002805482900390556107e1565b6001600160a01b03821660009081526020819052604090208054820190555b816001600160a01b0316836001600160a01b03167fddf252ad1be2c89b69c2b068fc378daa952ba7f163c4a11628f55a4df523b3ef8360405161082691815260200190565b60405180910390a3505050565b602081526000825180602084015260005b818110156108615760208186018101516040868401015201610844565b506000604082850101526040601f19601f83011684010191505092915050565b80356001600160a01b038116811461089857600080fd5b919050565b600080604083850312156108b057600080fd5b6108b983610881565b946020939093013593505050565b6000806000606084860312156108dc57600080fd5b6108e584610881565b92506108f360208501610881565b929592945050506040919091013590565b60006020828403121561091657600080fd5b61091f82610881565b9392505050565b6000806040838503121561093957600080fd5b61094283610881565b915061095060208401610881565b90509250929050565b600181811c9082168061096d57607f821691505b60208210810361098d57634e487b7160e01b600052602260045260246000fd5b50919050565b8082018082111561033557634e487b7160e01b600052601160045260246000fdfea26469706673582212202763c5ceb0ef8cab82925726f4456e406419df82d03a09e03d318ef8269f99b664736f6c634300081b0033",
	"linkReferences": {},
	"deployedLinkReferences": {}
}